{
  "_format": "hh-sol-artifact-1",
  "contractName": "BoredApe",
  "sourceName": "contracts/BoredApe.sol",
  "abi": [
    {
      "inputs": [
        {
          "internalType": "string",
          "name": "uri",
          "type": "string"
        },
        {
          "internalType": "bytes32",
          "name": "merkleroot",
          "type": "bytes32"
        },
        {
          "internalType": "address",
          "name": "_proxyRegistryAddress",
          "type": "address"
        }
      ],
      "stateMutability": "nonpayable",
      "type": "constructor"
    },
    {
      "anonymous": false,
      "inputs": [
        {
          "indexed": true,
          "internalType": "address",
          "name": "owner",
          "type": "address"
        },
        {
          "indexed": true,
          "internalType": "address",
          "name": "approved",
          "type": "address"
        },
        {
          "indexed": true,
          "internalType": "uint256",
          "name": "tokenId",
          "type": "uint256"
        }
      ],
      "name": "Approval",
      "type": "event"
    },
    {
      "anonymous": false,
      "inputs": [
        {
          "indexed": true,
          "internalType": "address",
          "name": "owner",
          "type": "address"
        },
        {
          "indexed": true,
          "internalType": "address",
          "name": "operator",
          "type": "address"
        },
        {
          "indexed": false,
          "internalType": "bool",
          "name": "approved",
          "type": "bool"
        }
      ],
      "name": "ApprovalForAll",
      "type": "event"
    },
    {
      "anonymous": false,
      "inputs": [
        {
          "indexed": true,
          "internalType": "contract IERC20",
          "name": "token",
          "type": "address"
        },
        {
          "indexed": false,
          "internalType": "address",
          "name": "to",
          "type": "address"
        },
        {
          "indexed": false,
          "internalType": "uint256",
          "name": "amount",
          "type": "uint256"
        }
      ],
      "name": "ERC20PaymentReleased",
      "type": "event"
    },
    {
      "anonymous": false,
      "inputs": [
        {
          "indexed": true,
          "internalType": "address",
          "name": "previousOwner",
          "type": "address"
        },
        {
          "indexed": true,
          "internalType": "address",
          "name": "newOwner",
          "type": "address"
        }
      ],
      "name": "OwnershipTransferred",
      "type": "event"
    },
    {
      "anonymous": false,
      "inputs": [
        {
          "indexed": false,
          "internalType": "address",
          "name": "account",
          "type": "address"
        },
        {
          "indexed": false,
          "internalType": "uint256",
          "name": "shares",
          "type": "uint256"
        }
      ],
      "name": "PayeeAdded",
      "type": "event"
    },
    {
      "anonymous": false,
      "inputs": [
        {
          "indexed": false,
          "internalType": "address",
          "name": "from",
          "type": "address"
        },
        {
          "indexed": false,
          "internalType": "uint256",
          "name": "amount",
          "type": "uint256"
        }
      ],
      "name": "PaymentReceived",
      "type": "event"
    },
    {
      "anonymous": false,
      "inputs": [
        {
          "indexed": false,
          "internalType": "address",
          "name": "to",
          "type": "address"
        },
        {
          "indexed": false,
          "internalType": "uint256",
          "name": "amount",
          "type": "uint256"
        }
      ],
      "name": "PaymentReleased",
      "type": "event"
    },
    {
      "anonymous": false,
      "inputs": [
        {
          "indexed": true,
          "internalType": "address",
          "name": "from",
          "type": "address"
        },
        {
          "indexed": true,
          "internalType": "address",
          "name": "to",
          "type": "address"
        },
        {
          "indexed": true,
          "internalType": "uint256",
          "name": "tokenId",
          "type": "uint256"
        }
      ],
      "name": "Transfer",
      "type": "event"
    },
    {
      "inputs": [
        {
          "internalType": "address",
          "name": "",
          "type": "address"
        }
      ],
      "name": "_presaleClaimed",
      "outputs": [
        {
          "internalType": "uint256",
          "name": "",
          "type": "uint256"
        }
      ],
      "stateMutability": "view",
      "type": "function"
    },
    {
      "inputs": [
        {
          "internalType": "address",
          "name": "to",
          "type": "address"
        },
        {
          "internalType": "uint256",
          "name": "tokenId",
          "type": "uint256"
        }
      ],
      "name": "approve",
      "outputs": [],
      "stateMutability": "nonpayable",
      "type": "function"
    },
    {
      "inputs": [
        {
          "internalType": "address",
          "name": "owner",
          "type": "address"
        }
      ],
      "name": "balanceOf",
      "outputs": [
        {
          "internalType": "uint256",
          "name": "",
          "type": "uint256"
        }
      ],
      "stateMutability": "view",
      "type": "function"
    },
    {
      "inputs": [],
      "name": "baseExtension",
      "outputs": [
        {
          "internalType": "string",
          "name": "",
          "type": "string"
        }
      ],
      "stateMutability": "view",
      "type": "function"
    },
    {
      "inputs": [],
      "name": "baseURI",
      "outputs": [
        {
          "internalType": "string",
          "name": "",
          "type": "string"
        }
      ],
      "stateMutability": "view",
      "type": "function"
    },
    {
      "inputs": [
        {
          "internalType": "uint256",
          "name": "tokenId",
          "type": "uint256"
        }
      ],
      "name": "getApproved",
      "outputs": [
        {
          "internalType": "address",
          "name": "",
          "type": "address"
        }
      ],
      "stateMutability": "view",
      "type": "function"
    },
    {
      "inputs": [
        {
          "internalType": "address",
          "name": "owner",
          "type": "address"
        },
        {
          "internalType": "address",
          "name": "operator",
          "type": "address"
        }
      ],
      "name": "isApprovedForAll",
      "outputs": [
        {
          "internalType": "bool",
          "name": "",
          "type": "bool"
        }
      ],
      "stateMutability": "view",
      "type": "function"
    },
    {
      "inputs": [],
      "name": "maxSupply",
      "outputs": [
        {
          "internalType": "uint256",
          "name": "",
          "type": "uint256"
        }
      ],
      "stateMutability": "view",
      "type": "function"
    },
    {
      "inputs": [],
      "name": "name",
      "outputs": [
        {
          "internalType": "string",
          "name": "",
          "type": "string"
        }
      ],
      "stateMutability": "view",
      "type": "function"
    },
    {
      "inputs": [],
      "name": "notRevealedUri",
      "outputs": [
        {
          "internalType": "string",
          "name": "",
          "type": "string"
        }
      ],
      "stateMutability": "view",
      "type": "function"
    },
    {
      "inputs": [],
      "name": "owner",
      "outputs": [
        {
          "internalType": "address",
          "name": "",
          "type": "address"
        }
      ],
      "stateMutability": "view",
      "type": "function"
    },
    {
      "inputs": [
        {
          "internalType": "uint256",
          "name": "tokenId",
          "type": "uint256"
        }
      ],
      "name": "ownerOf",
      "outputs": [
        {
          "internalType": "address",
          "name": "",
          "type": "address"
        }
      ],
      "stateMutability": "view",
      "type": "function"
    },
    {
      "inputs": [],
      "name": "paused",
      "outputs": [
        {
          "internalType": "bool",
          "name": "",
          "type": "bool"
        }
      ],
      "stateMutability": "view",
      "type": "function"
    },
    {
      "inputs": [
        {
          "internalType": "uint256",
          "name": "index",
          "type": "uint256"
        }
      ],
      "name": "payee",
      "outputs": [
        {
          "internalType": "address",
          "name": "",
          "type": "address"
        }
      ],
      "stateMutability": "view",
      "type": "function"
    },
    {
      "inputs": [],
      "name": "presaleM",
      "outputs": [
        {
          "internalType": "bool",
          "name": "",
          "type": "bool"
        }
      ],
      "stateMutability": "view",
      "type": "function"
    },
    {
      "inputs": [
        {
          "internalType": "address",
          "name": "account",
          "type": "address"
        },
        {
          "internalType": "uint256",
          "name": "_amount",
          "type": "uint256"
        },
        {
          "internalType": "bytes32[]",
          "name": "_proof",
          "type": "bytes32[]"
        }
      ],
      "name": "presaleMint",
      "outputs": [],
      "stateMutability": "payable",
      "type": "function"
    },
    {
      "inputs": [],
      "name": "publicM",
      "outputs": [
        {
          "internalType": "bool",
          "name": "",
          "type": "bool"
        }
      ],
      "stateMutability": "view",
      "type": "function"
    },
    {
      "inputs": [
        {
          "internalType": "uint256",
          "name": "_amount",
          "type": "uint256"
        }
      ],
      "name": "publicSaleMint",
      "outputs": [],
      "stateMutability": "payable",
      "type": "function"
    },
    {
      "inputs": [
        {
          "internalType": "address",
          "name": "account",
          "type": "address"
        }
      ],
      "name": "releasable",
      "outputs": [
        {
          "internalType": "uint256",
          "name": "",
          "type": "uint256"
        }
      ],
      "stateMutability": "view",
      "type": "function"
    },
    {
      "inputs": [
        {
          "internalType": "contract IERC20",
          "name": "token",
          "type": "address"
        },
        {
          "internalType": "address",
          "name": "account",
          "type": "address"
        }
      ],
      "name": "releasable",
      "outputs": [
        {
          "internalType": "uint256",
          "name": "",
          "type": "uint256"
        }
      ],
      "stateMutability": "view",
      "type": "function"
    },
    {
      "inputs": [
        {
          "internalType": "address payable",
          "name": "account",
          "type": "address"
        }
      ],
      "name": "release",
      "outputs": [],
      "stateMutability": "nonpayable",
      "type": "function"
    },
    {
      "inputs": [
        {
          "internalType": "contract IERC20",
          "name": "token",
          "type": "address"
        },
        {
          "internalType": "address",
          "name": "account",
          "type": "address"
        }
      ],
      "name": "release",
      "outputs": [],
      "stateMutability": "nonpayable",
      "type": "function"
    },
    {
      "inputs": [
        {
          "internalType": "contract IERC20",
          "name": "token",
          "type": "address"
        },
        {
          "internalType": "address",
          "name": "account",
          "type": "address"
        }
      ],
      "name": "released",
      "outputs": [
        {
          "internalType": "uint256",
          "name": "",
          "type": "uint256"
        }
      ],
      "stateMutability": "view",
      "type": "function"
    },
    {
      "inputs": [
        {
          "internalType": "address",
          "name": "account",
          "type": "address"
        }
      ],
      "name": "released",
      "outputs": [
        {
          "internalType": "uint256",
          "name": "",
          "type": "uint256"
        }
      ],
      "stateMutability": "view",
      "type": "function"
    },
    {
      "inputs": [],
      "name": "renounceOwnership",
      "outputs": [],
      "stateMutability": "nonpayable",
      "type": "function"
    },
    {
      "inputs": [],
      "name": "reveal",
      "outputs": [],
      "stateMutability": "nonpayable",
      "type": "function"
    },
    {
      "inputs": [],
      "name": "revealed",
      "outputs": [
        {
          "internalType": "bool",
          "name": "",
          "type": "bool"
        }
      ],
      "stateMutability": "view",
      "type": "function"
    },
    {
      "inputs": [],
      "name": "root",
      "outputs": [
        {
          "internalType": "bytes32",
          "name": "",
          "type": "bytes32"
        }
      ],
      "stateMutability": "view",
      "type": "function"
    },
    {
      "inputs": [
        {
          "internalType": "address",
          "name": "from",
          "type": "address"
        },
        {
          "internalType": "address",
          "name": "to",
          "type": "address"
        },
        {
          "internalType": "uint256",
          "name": "tokenId",
          "type": "uint256"
        }
      ],
      "name": "safeTransferFrom",
      "outputs": [],
      "stateMutability": "nonpayable",
      "type": "function"
    },
    {
      "inputs": [
        {
          "internalType": "address",
          "name": "from",
          "type": "address"
        },
        {
          "internalType": "address",
          "name": "to",
          "type": "address"
        },
        {
          "internalType": "uint256",
          "name": "tokenId",
          "type": "uint256"
        },
        {
          "internalType": "bytes",
          "name": "data",
          "type": "bytes"
        }
      ],
      "name": "safeTransferFrom",
      "outputs": [],
      "stateMutability": "nonpayable",
      "type": "function"
    },
    {
      "inputs": [
        {
          "internalType": "address",
          "name": "operator",
          "type": "address"
        },
        {
          "internalType": "bool",
          "name": "approved",
          "type": "bool"
        }
      ],
      "name": "setApprovalForAll",
      "outputs": [],
      "stateMutability": "nonpayable",
      "type": "function"
    },
    {
      "inputs": [
        {
          "internalType": "string",
          "name": "_newBaseExtension",
          "type": "string"
        }
      ],
      "name": "setBaseExtension",
      "outputs": [],
      "stateMutability": "nonpayable",
      "type": "function"
    },
    {
      "inputs": [
        {
          "internalType": "string",
          "name": "_tokenBaseURI",
          "type": "string"
        }
      ],
      "name": "setBaseURI",
      "outputs": [],
      "stateMutability": "nonpayable",
      "type": "function"
    },
    {
      "inputs": [
        {
          "internalType": "bytes32",
          "name": "merkleroot",
          "type": "bytes32"
        }
      ],
      "name": "setMerkleRoot",
      "outputs": [],
      "stateMutability": "nonpayable",
      "type": "function"
    },
    {
      "inputs": [
        {
          "internalType": "string",
          "name": "_notRevealedURI",
          "type": "string"
        }
      ],
      "name": "setNotRevealedURI",
      "outputs": [],
      "stateMutability": "nonpayable",
      "type": "function"
    },
    {
      "inputs": [
        {
          "internalType": "address",
          "name": "account",
          "type": "address"
        }
      ],
      "name": "shares",
      "outputs": [
        {
          "internalType": "uint256",
          "name": "",
          "type": "uint256"
        }
      ],
      "stateMutability": "view",
      "type": "function"
    },
    {
      "inputs": [
        {
          "internalType": "bytes4",
          "name": "interfaceId",
          "type": "bytes4"
        }
      ],
      "name": "supportsInterface",
      "outputs": [
        {
          "internalType": "bool",
          "name": "",
          "type": "bool"
        }
      ],
      "stateMutability": "view",
      "type": "function"
    },
    {
      "inputs": [],
      "name": "symbol",
      "outputs": [
        {
          "internalType": "string",
          "name": "",
          "type": "string"
        }
      ],
      "stateMutability": "view",
      "type": "function"
    },
    {
      "inputs": [],
      "name": "togglePause",
      "outputs": [],
      "stateMutability": "nonpayable",
      "type": "function"
    },
    {
      "inputs": [],
      "name": "togglePresale",
      "outputs": [],
      "stateMutability": "nonpayable",
      "type": "function"
    },
    {
      "inputs": [],
      "name": "togglePublicSale",
      "outputs": [],
      "stateMutability": "nonpayable",
      "type": "function"
    },
    {
      "inputs": [
        {
          "internalType": "uint256",
          "name": "tokenId",
          "type": "uint256"
        }
      ],
      "name": "tokenURI",
      "outputs": [
        {
          "internalType": "string",
          "name": "",
          "type": "string"
        }
      ],
      "stateMutability": "view",
      "type": "function"
    },
    {
      "inputs": [
        {
          "internalType": "contract IERC20",
          "name": "token",
          "type": "address"
        }
      ],
      "name": "totalReleased",
      "outputs": [
        {
          "internalType": "uint256",
          "name": "",
          "type": "uint256"
        }
      ],
      "stateMutability": "view",
      "type": "function"
    },
    {
      "inputs": [],
      "name": "totalReleased",
      "outputs": [
        {
          "internalType": "uint256",
          "name": "",
          "type": "uint256"
        }
      ],
      "stateMutability": "view",
      "type": "function"
    },
    {
      "inputs": [],
      "name": "totalShares",
      "outputs": [
        {
          "internalType": "uint256",
          "name": "",
          "type": "uint256"
        }
      ],
      "stateMutability": "view",
      "type": "function"
    },
    {
      "inputs": [],
      "name": "totalSupply",
      "outputs": [
        {
          "internalType": "uint256",
          "name": "",
          "type": "uint256"
        }
      ],
      "stateMutability": "view",
      "type": "function"
    },
    {
      "inputs": [
        {
          "internalType": "address",
          "name": "from",
          "type": "address"
        },
        {
          "internalType": "address",
          "name": "to",
          "type": "address"
        },
        {
          "internalType": "uint256",
          "name": "tokenId",
          "type": "uint256"
        }
      ],
      "name": "transferFrom",
      "outputs": [],
      "stateMutability": "nonpayable",
      "type": "function"
    },
    {
      "inputs": [
        {
          "internalType": "address",
          "name": "newOwner",
          "type": "address"
        }
      ],
      "name": "transferOwnership",
      "outputs": [],
      "stateMutability": "nonpayable",
      "type": "function"
    },
    {
      "stateMutability": "payable",
      "type": "receive"
    }
  ],
  "bytecode": "0x6080604052606460115560405180608001604052806041815260200162007060604191396013908162000033919062000cb0565b506040518060400160405280600581526020017f2e6a736f6e000000000000000000000000000000000000000000000000000000815250601490816200007a919062000cb0565b506000601560006101000a81548160ff0219169083151502179055506000601560016101000a81548160ff0219169083151502179055506000601560026101000a81548160ff0219169083151502179055506000601560036101000a81548160ff0219169083151502179055506003601655662386f26fc100006018556040518060600160405280601960ff168152602001602360ff168152602001602860ff16815250601a9060036200013092919062000931565b50604051806060016040528073933572d5f83b00a998102b7bf1a99c0f197e685b73ffffffffffffffffffffffffffffffffffffffff1673ffffffffffffffffffffffffffffffffffffffff1681526020017382de9ce4a49ffec4c41cf733126f618ed83a879c73ffffffffffffffffffffffffffffffffffffffff1673ffffffffffffffffffffffffffffffffffffffff168152602001738a7ac9834e2d4487da22dc130c97ee8fbdc8556873ffffffffffffffffffffffffffffffffffffffff1673ffffffffffffffffffffffffffffffffffffffff16815250601b9060036200021e92919062000988565b503480156200022c57600080fd5b50604051620070a1380380620070a1833981810160405281019062000252919062000f9b565b601b805480602002602001604051908101604052809291908181526020018280548015620002d657602002820191906000526020600020905b8160009054906101000a900473ffffffffffffffffffffffffffffffffffffffff1673ffffffffffffffffffffffffffffffffffffffff16815260200190600101908083116200028b575b5050505050601a8054806020026020016040519081016040528092919081815260200182805480156200032957602002820191906000526020600020905b81548152602001906001019080831162000314575b50505050506040518060400160405280600781526020017f42616461677279000000000000000000000000000000000000000000000000008152506040518060400160405280600581526020017f42414447590000000000000000000000000000000000000000000000000000008152508160009081620003ab919062000cb0565b508060019081620003bd919062000cb0565b505050620003e0620003d46200054a60201b60201c565b6200055260201b60201c565b600160078190555080518251146200042f576040517f08c379a000000000000000000000000000000000000000000000000000000000815260040162000426906200109d565b60405180910390fd5b600082511162000476576040517f08c379a00000000000000000000000000000000000000000000000000000000081526004016200046d906200110f565b60405180910390fd5b60005b8251811015620004e557620004cf8382815181106200049d576200049c62001131565b5b6020026020010151838381518110620004bb57620004ba62001131565b5b60200260200101516200061860201b60201c565b8080620004dc906200118f565b91505062000479565b50505081600f8190555080601060006101000a81548173ffffffffffffffffffffffffffffffffffffffff021916908373ffffffffffffffffffffffffffffffffffffffff16021790555062000541836200085160201b60201c565b5050506200147a565b600033905090565b6000600660009054906101000a900473ffffffffffffffffffffffffffffffffffffffff16905081600660006101000a81548173ffffffffffffffffffffffffffffffffffffffff021916908373ffffffffffffffffffffffffffffffffffffffff1602179055508173ffffffffffffffffffffffffffffffffffffffff168173ffffffffffffffffffffffffffffffffffffffff167f8be0079c531659141344cd1fd0a4f28419497f9722a3daafe3b4186f6b6457e060405160405180910390a35050565b600073ffffffffffffffffffffffffffffffffffffffff168273ffffffffffffffffffffffffffffffffffffffff16036200068a576040517f08c379a0000000000000000000000000000000000000000000000000000000008152600401620006819062001252565b60405180910390fd5b60008111620006d0576040517f08c379a0000000000000000000000000000000000000000000000000000000008152600401620006c790620012c4565b60405180910390fd5b6000600a60008473ffffffffffffffffffffffffffffffffffffffff1673ffffffffffffffffffffffffffffffffffffffff168152602001908152602001600020541462000755576040517f08c379a00000000000000000000000000000000000000000000000000000000081526004016200074c906200135c565b60405180910390fd5b600c829080600181540180825580915050600190039060005260206000200160009091909190916101000a81548173ffffffffffffffffffffffffffffffffffffffff021916908373ffffffffffffffffffffffffffffffffffffffff16021790555080600a60008473ffffffffffffffffffffffffffffffffffffffff1673ffffffffffffffffffffffffffffffffffffffff16815260200190815260200160002081905550806008546200080c91906200137e565b6008819055507f40c340f65e17194d14ddddb073d3c9f888e3cb52b5aae0c6c7706b4fbc905fac828260405162000845929190620013db565b60405180910390a15050565b620008616200087660201b60201c565b806012908162000872919062000cb0565b5050565b620008866200054a60201b60201c565b73ffffffffffffffffffffffffffffffffffffffff16620008ac6200090760201b60201c565b73ffffffffffffffffffffffffffffffffffffffff161462000905576040517f08c379a0000000000000000000000000000000000000000000000000000000008152600401620008fc9062001458565b60405180910390fd5b565b6000600660009054906101000a900473ffffffffffffffffffffffffffffffffffffffff16905090565b82805482825590600052602060002090810192821562000975579160200282015b8281111562000974578251829060ff1690559160200191906001019062000952565b5b50905062000984919062000a17565b5090565b82805482825590600052602060002090810192821562000a04579160200282015b8281111562000a035782518260006101000a81548173ffffffffffffffffffffffffffffffffffffffff021916908373ffffffffffffffffffffffffffffffffffffffff16021790555091602001919060010190620009a9565b5b50905062000a13919062000a17565b5090565b5b8082111562000a3257600081600090555060010162000a18565b5090565b600081519050919050565b7f4e487b7100000000000000000000000000000000000000000000000000000000600052604160045260246000fd5b7f4e487b7100000000000000000000000000000000000000000000000000000000600052602260045260246000fd5b6000600282049050600182168062000ab857607f821691505b60208210810362000ace5762000acd62000a70565b5b50919050565b60008190508160005260206000209050919050565b60006020601f8301049050919050565b600082821b905092915050565b60006008830262000b387fffffffffffffffffffffffffffffffffffffffffffffffffffffffffffffffff8262000af9565b62000b44868362000af9565b95508019841693508086168417925050509392505050565b6000819050919050565b6000819050919050565b600062000b9162000b8b62000b858462000b5c565b62000b66565b62000b5c565b9050919050565b6000819050919050565b62000bad8362000b70565b62000bc562000bbc8262000b98565b84845462000b06565b825550505050565b600090565b62000bdc62000bcd565b62000be981848462000ba2565b505050565b5b8181101562000c115762000c0560008262000bd2565b60018101905062000bef565b5050565b601f82111562000c605762000c2a8162000ad4565b62000c358462000ae9565b8101602085101562000c45578190505b62000c5d62000c548562000ae9565b83018262000bee565b50505b505050565b600082821c905092915050565b600062000c856000198460080262000c65565b1980831691505092915050565b600062000ca0838362000c72565b9150826002028217905092915050565b62000cbb8262000a36565b67ffffffffffffffff81111562000cd75762000cd662000a41565b5b62000ce3825462000a9f565b62000cf082828562000c15565b600060209050601f83116001811462000d28576000841562000d13578287015190505b62000d1f858262000c92565b86555062000d8f565b601f19841662000d388662000ad4565b60005b8281101562000d625784890151825560018201915060208501945060208101905062000d3b565b8683101562000d82578489015162000d7e601f89168262000c72565b8355505b6001600288020188555050505b505050505050565b6000604051905090565b600080fd5b600080fd5b600080fd5b600080fd5b6000601f19601f8301169050919050565b62000dd18262000db5565b810181811067ffffffffffffffff8211171562000df35762000df262000a41565b5b80604052505050565b600062000e0862000d97565b905062000e16828262000dc6565b919050565b600067ffffffffffffffff82111562000e395762000e3862000a41565b5b62000e448262000db5565b9050602081019050919050565b60005b8381101562000e7157808201518184015260208101905062000e54565b60008484015250505050565b600062000e9462000e8e8462000e1b565b62000dfc565b90508281526020810184848401111562000eb35762000eb262000db0565b5b62000ec084828562000e51565b509392505050565b600082601f83011262000ee05762000edf62000dab565b5b815162000ef284826020860162000e7d565b91505092915050565b6000819050919050565b62000f108162000efb565b811462000f1c57600080fd5b50565b60008151905062000f308162000f05565b92915050565b600073ffffffffffffffffffffffffffffffffffffffff82169050919050565b600062000f638262000f36565b9050919050565b62000f758162000f56565b811462000f8157600080fd5b50565b60008151905062000f958162000f6a565b92915050565b60008060006060848603121562000fb75762000fb662000da1565b5b600084015167ffffffffffffffff81111562000fd85762000fd762000da6565b5b62000fe68682870162000ec8565b935050602062000ff98682870162000f1f565b92505060406200100c8682870162000f84565b9150509250925092565b600082825260208201905092915050565b7f5061796d656e7453706c69747465723a2070617965657320616e64207368617260008201527f6573206c656e677468206d69736d617463680000000000000000000000000000602082015250565b60006200108560328362001016565b9150620010928262001027565b604082019050919050565b60006020820190508181036000830152620010b88162001076565b9050919050565b7f5061796d656e7453706c69747465723a206e6f20706179656573000000000000600082015250565b6000620010f7601a8362001016565b91506200110482620010bf565b602082019050919050565b600060208201905081810360008301526200112a81620010e8565b9050919050565b7f4e487b7100000000000000000000000000000000000000000000000000000000600052603260045260246000fd5b7f4e487b7100000000000000000000000000000000000000000000000000000000600052601160045260246000fd5b60006200119c8262000b5c565b91507fffffffffffffffffffffffffffffffffffffffffffffffffffffffffffffffff8203620011d157620011d062001160565b5b600182019050919050565b7f5061796d656e7453706c69747465723a206163636f756e74206973207468652060008201527f7a65726f20616464726573730000000000000000000000000000000000000000602082015250565b60006200123a602c8362001016565b91506200124782620011dc565b604082019050919050565b600060208201905081810360008301526200126d816200122b565b9050919050565b7f5061796d656e7453706c69747465723a20736861726573206172652030000000600082015250565b6000620012ac601d8362001016565b9150620012b98262001274565b602082019050919050565b60006020820190508181036000830152620012df816200129d565b9050919050565b7f5061796d656e7453706c69747465723a206163636f756e7420616c726561647960008201527f2068617320736861726573000000000000000000000000000000000000000000602082015250565b600062001344602b8362001016565b91506200135182620012e6565b604082019050919050565b60006020820190508181036000830152620013778162001335565b9050919050565b60006200138b8262000b5c565b9150620013988362000b5c565b9250828201905080821115620013b357620013b262001160565b5b92915050565b620013c48162000f56565b82525050565b620013d58162000b5c565b82525050565b6000604082019050620013f26000830185620013b9565b620014016020830184620013ca565b9392505050565b7f4f776e61626c653a2063616c6c6572206973206e6f7420746865206f776e6572600082015250565b60006200144060208362001016565b91506200144d8262001408565b602082019050919050565b60006020820190508181036000830152620014738162001431565b9050919050565b615bd6806200148a6000396000f3fe6080604052600436106102975760003560e01c80638da5cb5b1161015a578063c6682862116100c1578063e222c7f91161007a578063e222c7f914610a59578063e33b7de314610a70578063e985e9c514610a9b578063ebf0c71714610ad8578063f2c4ce1e14610b03578063f2fde38b14610b2c576102de565b8063c668286214610923578063c87b56dd1461094e578063ce7c2ac21461098b578063d5abeb01146109c8578063d79779b2146109f3578063da3ef23f14610a30576102de565b8063a45063c011610113578063a45063c014610848578063a475b5dd14610873578063b3ab66b01461088a578063b88d4fde146108a6578063c45ac050146108cf578063c4ae31681461090c576102de565b80638da5cb5b14610733578063954dc3e31461075e57806395d89b411461077a5780639852595c146107a5578063a22cb465146107e2578063a3f8eace1461080b576102de565b806342842e0e116101fe5780636c0360eb116101b75780636c0360eb1461061157806370a082311461063c578063715018a6146106795780637cb64759146106905780638b83209b146106b95780638cc4de19146106f6576102de565b806342842e0e1461050357806348b750441461052c578063518302271461055557806355f804b3146105805780635c975abb146105a95780636352211e146105d4576102de565b806318160ddd1161025057806318160ddd14610407578063191655871461043257806323b872dd1461045b57806334393743146104845780633a98ef391461049b578063406072a9146104c6576102de565b806301ffc9a7146102e357806306fdde0314610320578063081812fc1461034b578063081c8c4414610388578063095ea7b3146103b35780631798d58b146103dc576102de565b366102de577f6ef95f06320e7a25a04a175ca677b7052bdd97131872c2192525a629f51be7706102c5610b55565b346040516102d4929190613a17565b60405180910390a1005b600080fd5b3480156102ef57600080fd5b5061030a60048036038101906103059190613aac565b610b5d565b6040516103179190613af4565b60405180910390f35b34801561032c57600080fd5b50610335610c3f565b6040516103429190613b9f565b60405180910390f35b34801561035757600080fd5b50610372600480360381019061036d9190613bed565b610cd1565b60405161037f9190613c1a565b60405180910390f35b34801561039457600080fd5b5061039d610d17565b6040516103aa9190613b9f565b60405180910390f35b3480156103bf57600080fd5b506103da60048036038101906103d59190613c61565b610da5565b005b3480156103e857600080fd5b506103f1610ebc565b6040516103fe9190613af4565b60405180910390f35b34801561041357600080fd5b5061041c610ecf565b6040516104299190613ca1565b60405180910390f35b34801561043e57600080fd5b5061045960048036038101906104549190613cfa565b610ee0565b005b34801561046757600080fd5b50610482600480360381019061047d9190613d27565b61105f565b005b34801561049057600080fd5b506104996110bf565b005b3480156104a757600080fd5b506104b06110f3565b6040516104bd9190613ca1565b60405180910390f35b3480156104d257600080fd5b506104ed60048036038101906104e89190613db8565b6110fd565b6040516104fa9190613ca1565b60405180910390f35b34801561050f57600080fd5b5061052a60048036038101906105259190613d27565b611184565b005b34801561053857600080fd5b50610553600480360381019061054e9190613db8565b6111a4565b005b34801561056157600080fd5b5061056a6113b7565b6040516105779190613af4565b60405180910390f35b34801561058c57600080fd5b506105a760048036038101906105a29190613f2d565b6113ca565b005b3480156105b557600080fd5b506105be6113e5565b6040516105cb9190613af4565b60405180910390f35b3480156105e057600080fd5b506105fb60048036038101906105f69190613bed565b6113f8565b6040516106089190613c1a565b60405180910390f35b34801561061d57600080fd5b5061062661147e565b6040516106339190613b9f565b60405180910390f35b34801561064857600080fd5b50610663600480360381019061065e9190613f76565b61150c565b6040516106709190613ca1565b60405180910390f35b34801561068557600080fd5b5061068e6115c3565b005b34801561069c57600080fd5b506106b760048036038101906106b29190613fd9565b6115d7565b005b3480156106c557600080fd5b506106e060048036038101906106db9190613bed565b6115e9565b6040516106ed9190613c1a565b60405180910390f35b34801561070257600080fd5b5061071d60048036038101906107189190613f76565b611631565b60405161072a9190613ca1565b60405180910390f35b34801561073f57600080fd5b50610748611649565b6040516107559190613c1a565b60405180910390f35b61077860048036038101906107739190614066565b611673565b005b34801561078657600080fd5b5061078f611ab2565b60405161079c9190613b9f565b60405180910390f35b3480156107b157600080fd5b506107cc60048036038101906107c79190613f76565b611b44565b6040516107d99190613ca1565b60405180910390f35b3480156107ee57600080fd5b5061080960048036038101906108049190614106565b611b8d565b005b34801561081757600080fd5b50610832600480360381019061082d9190613f76565b611ba3565b60405161083f9190613ca1565b60405180910390f35b34801561085457600080fd5b5061085d611bd6565b60405161086a9190613af4565b60405180910390f35b34801561087f57600080fd5b50610888611be9565b005b6108a4600480360381019061089f9190613bed565b611c0e565b005b3480156108b257600080fd5b506108cd60048036038101906108c891906141e7565b611e37565b005b3480156108db57600080fd5b506108f660048036038101906108f19190613db8565b611e99565b6040516109039190613ca1565b60405180910390f35b34801561091857600080fd5b50610921611f48565b005b34801561092f57600080fd5b50610938611f7c565b6040516109459190613b9f565b60405180910390f35b34801561095a57600080fd5b5061097560048036038101906109709190613bed565b61200a565b6040516109829190613b9f565b60405180910390f35b34801561099757600080fd5b506109b260048036038101906109ad9190613f76565b612162565b6040516109bf9190613ca1565b60405180910390f35b3480156109d457600080fd5b506109dd6121ab565b6040516109ea9190613ca1565b60405180910390f35b3480156109ff57600080fd5b50610a1a6004803603810190610a15919061426a565b6121b1565b604051610a279190613ca1565b60405180910390f35b348015610a3c57600080fd5b50610a576004803603810190610a529190613f2d565b6121fa565b005b348015610a6557600080fd5b50610a6e612215565b005b348015610a7c57600080fd5b50610a85612249565b604051610a929190613ca1565b60405180910390f35b348015610aa757600080fd5b50610ac26004803603810190610abd9190614297565b612253565b604051610acf9190613af4565b60405180910390f35b348015610ae457600080fd5b50610aed612345565b604051610afa91906142e6565b60405180910390f35b348015610b0f57600080fd5b50610b2a6004803603810190610b259190613f2d565b61234b565b005b348015610b3857600080fd5b50610b536004803603810190610b4e9190613f76565b612366565b005b600033905090565b60007f80ac58cd000000000000000000000000000000000000000000000000000000007bffffffffffffffffffffffffffffffffffffffffffffffffffffffff1916827bffffffffffffffffffffffffffffffffffffffffffffffffffffffff19161480610c2857507f5b5e139f000000000000000000000000000000000000000000000000000000007bffffffffffffffffffffffffffffffffffffffffffffffffffffffff1916827bffffffffffffffffffffffffffffffffffffffffffffffffffffffff1916145b80610c385750610c37826123e9565b5b9050919050565b606060008054610c4e90614330565b80601f0160208091040260200160405190810160405280929190818152602001828054610c7a90614330565b8015610cc75780601f10610c9c57610100808354040283529160200191610cc7565b820191906000526020600020905b815481529060010190602001808311610caa57829003601f168201915b5050505050905090565b6000610cdc82612453565b6004600083815260200190815260200160002060009054906101000a900473ffffffffffffffffffffffffffffffffffffffff169050919050565b60138054610d2490614330565b80601f0160208091040260200160405190810160405280929190818152602001828054610d5090614330565b8015610d9d5780601f10610d7257610100808354040283529160200191610d9d565b820191906000526020600020905b815481529060010190602001808311610d8057829003601f168201915b505050505081565b6000610db0826113f8565b90508073ffffffffffffffffffffffffffffffffffffffff168373ffffffffffffffffffffffffffffffffffffffff1603610e20576040517f08c379a0000000000000000000000000000000000000000000000000000000008152600401610e17906143d3565b60405180910390fd5b8073ffffffffffffffffffffffffffffffffffffffff16610e3f610b55565b73ffffffffffffffffffffffffffffffffffffffff161480610e6e5750610e6d81610e68610b55565b612253565b5b610ead576040517f08c379a0000000000000000000000000000000000000000000000000000000008152600401610ea490614465565b60405180910390fd5b610eb7838361249e565b505050565b601560029054906101000a900460ff1681565b6000610edb6019612557565b905090565b6000600a60008373ffffffffffffffffffffffffffffffffffffffff1673ffffffffffffffffffffffffffffffffffffffff1681526020019081526020016000205411610f62576040517f08c379a0000000000000000000000000000000000000000000000000000000008152600401610f59906144f7565b60405180910390fd5b6000610f6d82611ba3565b905060008103610fb2576040517f08c379a0000000000000000000000000000000000000000000000000000000008152600401610fa990614589565b60405180910390fd5b8060096000828254610fc491906145d8565b9250508190555080600b60008473ffffffffffffffffffffffffffffffffffffffff1673ffffffffffffffffffffffffffffffffffffffff168152602001908152602001600020600082825401925050819055506110228282612565565b7fdf20fd1e76bc69d672e4814fafb2c449bba3a5369d8359adf9e05e6fde87b056828260405161105392919061466b565b60405180910390a15050565b61107061106a610b55565b82612659565b6110af576040517f08c379a00000000000000000000000000000000000000000000000000000000081526004016110a690614706565b60405180910390fd5b6110ba8383836126ee565b505050565b6110c76129e7565b601560029054906101000a900460ff1615601560026101000a81548160ff021916908315150217905550565b6000600854905090565b6000600e60008473ffffffffffffffffffffffffffffffffffffffff1673ffffffffffffffffffffffffffffffffffffffff16815260200190815260200160002060008373ffffffffffffffffffffffffffffffffffffffff1673ffffffffffffffffffffffffffffffffffffffff16815260200190815260200160002054905092915050565b61119f83838360405180602001604052806000815250611e37565b505050565b6000600a60008373ffffffffffffffffffffffffffffffffffffffff1673ffffffffffffffffffffffffffffffffffffffff1681526020019081526020016000205411611226576040517f08c379a000000000000000000000000000000000000000000000000000000000815260040161121d906144f7565b60405180910390fd5b60006112328383611e99565b905060008103611277576040517f08c379a000000000000000000000000000000000000000000000000000000000815260040161126e90614589565b60405180910390fd5b80600d60008573ffffffffffffffffffffffffffffffffffffffff1673ffffffffffffffffffffffffffffffffffffffff16815260200190815260200160002060008282546112c691906145d8565b9250508190555080600e60008573ffffffffffffffffffffffffffffffffffffffff1673ffffffffffffffffffffffffffffffffffffffff16815260200190815260200160002060008473ffffffffffffffffffffffffffffffffffffffff1673ffffffffffffffffffffffffffffffffffffffff16815260200190815260200160002060008282540192505081905550611362838383612a65565b8273ffffffffffffffffffffffffffffffffffffffff167f3be5b7a71e84ed12875d241991c70855ac5817d847039e17a9d895c1ceb0f18a83836040516113aa929190613a17565b60405180910390a2505050565b601560019054906101000a900460ff1681565b6113d26129e7565b80601290816113e191906148c8565b5050565b601560009054906101000a900460ff1681565b60008061140483612aeb565b9050600073ffffffffffffffffffffffffffffffffffffffff168173ffffffffffffffffffffffffffffffffffffffff1603611475576040517f08c379a000000000000000000000000000000000000000000000000000000000815260040161146c906149e6565b60405180910390fd5b80915050919050565b6012805461148b90614330565b80601f01602080910402602001604051908101604052809291908181526020018280546114b790614330565b80156115045780601f106114d957610100808354040283529160200191611504565b820191906000526020600020905b8154815290600101906020018083116114e757829003601f168201915b505050505081565b60008073ffffffffffffffffffffffffffffffffffffffff168273ffffffffffffffffffffffffffffffffffffffff160361157c576040517f08c379a000000000000000000000000000000000000000000000000000000000815260040161157390614a78565b60405180910390fd5b600360008373ffffffffffffffffffffffffffffffffffffffff1673ffffffffffffffffffffffffffffffffffffffff168152602001908152602001600020549050919050565b6115cb6129e7565b6115d56000612b28565b565b6115df6129e7565b80600f8190555050565b6000600c82815481106115ff576115fe614a98565b5b9060005260206000200160009054906101000a900473ffffffffffffffffffffffffffffffffffffffff169050919050565b60176020528060005260406000206000915090505481565b6000600660009054906101000a900473ffffffffffffffffffffffffffffffffffffffff16905090565b8181600115156116ed838380806020026020016040519081016040528093929190818152602001838360200280828437600081840152601f19601f82011690508083019250505050505050600f54336040516020016116d29190614b0f565b60405160208183030381529060405280519060200120612bee565b15151461172f576040517f08c379a000000000000000000000000000000000000000000000000000000000815260040161172690614b76565b60405180910390fd5b3273ffffffffffffffffffffffffffffffffffffffff163373ffffffffffffffffffffffffffffffffffffffff161461179d576040517f08c379a000000000000000000000000000000000000000000000000000000000815260040161179490614b76565b60405180910390fd5b8573ffffffffffffffffffffffffffffffffffffffff163373ffffffffffffffffffffffffffffffffffffffff161461180b576040517f08c379a000000000000000000000000000000000000000000000000000000000815260040161180290614be2565b60405180910390fd5b601560029054906101000a900460ff1661185a576040517f08c379a000000000000000000000000000000000000000000000000000000000815260040161185190614c4e565b60405180910390fd5b601560009054906101000a900460ff16156118aa576040517f08c379a00000000000000000000000000000000000000000000000000000000081526004016118a190614cba565b60405180910390fd5b6016548511156118ef576040517f08c379a00000000000000000000000000000000000000000000000000000000081526004016118e690614d4c565b60405180910390fd5b60165485601760003373ffffffffffffffffffffffffffffffffffffffff1673ffffffffffffffffffffffffffffffffffffffff1681526020019081526020016000205461193d91906145d8565b111561197e576040517f08c379a000000000000000000000000000000000000000000000000000000000815260040161197590614d4c565b60405180910390fd5b600061198a6019612557565b9050601154868261199b91906145d8565b11156119dc576040517f08c379a00000000000000000000000000000000000000000000000000000000081526004016119d390614db8565b60405180910390fd5b34866018546119eb9190614dd8565b1115611a2c576040517f08c379a0000000000000000000000000000000000000000000000000000000008152600401611a2390614e8c565b60405180910390fd5b85601760003373ffffffffffffffffffffffffffffffffffffffff1673ffffffffffffffffffffffffffffffffffffffff1681526020019081526020016000206000828254611a7b91906145d8565b9250508190555060005b86811015611aa857611a95612c05565b8080611aa090614eac565b915050611a85565b5050505050505050565b606060018054611ac190614330565b80601f0160208091040260200160405190810160405280929190818152602001828054611aed90614330565b8015611b3a5780601f10611b0f57610100808354040283529160200191611b3a565b820191906000526020600020905b815481529060010190602001808311611b1d57829003601f168201915b5050505050905090565b6000600b60008373ffffffffffffffffffffffffffffffffffffffff1673ffffffffffffffffffffffffffffffffffffffff168152602001908152602001600020549050919050565b611b9f611b98610b55565b8383612c3a565b5050565b600080611bae612249565b47611bb991906145d8565b9050611bce8382611bc986611b44565b612da6565b915050919050565b601560039054906101000a900460ff1681565b611bf16129e7565b6001601560016101000a81548160ff021916908315150217905550565b3273ffffffffffffffffffffffffffffffffffffffff163373ffffffffffffffffffffffffffffffffffffffff1614611c7c576040517f08c379a0000000000000000000000000000000000000000000000000000000008152600401611c7390614b76565b60405180910390fd5b601560039054906101000a900460ff16611ccb576040517f08c379a0000000000000000000000000000000000000000000000000000000008152600401611cc290614f40565b60405180910390fd5b601560009054906101000a900460ff1615611d1b576040517f08c379a0000000000000000000000000000000000000000000000000000000008152600401611d1290614cba565b60405180910390fd5b60008111611d5e576040517f08c379a0000000000000000000000000000000000000000000000000000000008152600401611d5590614fac565b60405180910390fd5b6000611d6a6019612557565b90506011548282611d7b91906145d8565b1115611dbc576040517f08c379a0000000000000000000000000000000000000000000000000000000008152600401611db390615018565b60405180910390fd5b3482601854611dcb9190614dd8565b1115611e0c576040517f08c379a0000000000000000000000000000000000000000000000000000000008152600401611e0390614e8c565b60405180910390fd5b60005b82811015611e3257611e1f612c05565b8080611e2a90614eac565b915050611e0f565b505050565b611e48611e42610b55565b83612659565b611e87576040517f08c379a0000000000000000000000000000000000000000000000000000000008152600401611e7e90614706565b60405180910390fd5b611e9384848484612e14565b50505050565b600080611ea5846121b1565b8473ffffffffffffffffffffffffffffffffffffffff166370a08231306040518263ffffffff1660e01b8152600401611ede9190613c1a565b602060405180830381865afa158015611efb573d6000803e3d6000fd5b505050506040513d601f19601f82011682018060405250810190611f1f919061504d565b611f2991906145d8565b9050611f3f8382611f3a87876110fd565b612da6565b91505092915050565b611f506129e7565b601560009054906101000a900460ff1615601560006101000a81548160ff021916908315150217905550565b60148054611f8990614330565b80601f0160208091040260200160405190810160405280929190818152602001828054611fb590614330565b80156120025780601f10611fd757610100808354040283529160200191612002565b820191906000526020600020905b815481529060010190602001808311611fe557829003601f168201915b505050505081565b606061201582612e70565b612054576040517f08c379a000000000000000000000000000000000000000000000000000000000815260040161204b906150ec565b60405180910390fd5b60001515601560019054906101000a900460ff16151503612101576013805461207c90614330565b80601f01602080910402602001604051908101604052809291908181526020018280546120a890614330565b80156120f55780601f106120ca576101008083540402835291602001916120f5565b820191906000526020600020905b8154815290600101906020018083116120d857829003601f168201915b5050505050905061215d565b600061210b612eb1565b9050600081511161212b5760405180602001604052806000815250612159565b8061213584612f43565b6014604051602001612149939291906151cb565b6040516020818303038152906040525b9150505b919050565b6000600a60008373ffffffffffffffffffffffffffffffffffffffff1673ffffffffffffffffffffffffffffffffffffffff168152602001908152602001600020549050919050565b60115481565b6000600d60008373ffffffffffffffffffffffffffffffffffffffff1673ffffffffffffffffffffffffffffffffffffffff168152602001908152602001600020549050919050565b6122026129e7565b806014908161221191906148c8565b5050565b61221d6129e7565b601560039054906101000a900460ff1615601560036101000a81548160ff021916908315150217905550565b6000600954905090565b600080601060009054906101000a900473ffffffffffffffffffffffffffffffffffffffff1690508273ffffffffffffffffffffffffffffffffffffffff168173ffffffffffffffffffffffffffffffffffffffff1663c4552791866040518263ffffffff1660e01b81526004016122cb9190613c1a565b602060405180830381865afa1580156122e8573d6000803e3d6000fd5b505050506040513d601f19601f8201168201806040525081019061230c919061523a565b73ffffffffffffffffffffffffffffffffffffffff160361233157600191505061233f565b61233b8484613011565b9150505b92915050565b600f5481565b6123536129e7565b806013908161236291906148c8565b5050565b61236e6129e7565b600073ffffffffffffffffffffffffffffffffffffffff168173ffffffffffffffffffffffffffffffffffffffff16036123dd576040517f08c379a00000000000000000000000000000000000000000000000000000000081526004016123d4906152d9565b60405180910390fd5b6123e681612b28565b50565b60007f01ffc9a7000000000000000000000000000000000000000000000000000000007bffffffffffffffffffffffffffffffffffffffffffffffffffffffff1916827bffffffffffffffffffffffffffffffffffffffffffffffffffffffff1916149050919050565b61245c81612e70565b61249b576040517f08c379a0000000000000000000000000000000000000000000000000000000008152600401612492906149e6565b60405180910390fd5b50565b816004600083815260200190815260200160002060006101000a81548173ffffffffffffffffffffffffffffffffffffffff021916908373ffffffffffffffffffffffffffffffffffffffff160217905550808273ffffffffffffffffffffffffffffffffffffffff16612511836113f8565b73ffffffffffffffffffffffffffffffffffffffff167f8c5be1e5ebec7d5bd14f71427d1e84f3dd0314c0f7b2291e5b200ac8c7c3b92560405160405180910390a45050565b600081600001549050919050565b804710156125a8576040517f08c379a000000000000000000000000000000000000000000000000000000000815260040161259f90615345565b60405180910390fd5b60008273ffffffffffffffffffffffffffffffffffffffff16826040516125ce90615396565b60006040518083038185875af1925050503d806000811461260b576040519150601f19603f3d011682016040523d82523d6000602084013e612610565b606091505b5050905080612654576040517f08c379a000000000000000000000000000000000000000000000000000000000815260040161264b9061541d565b60405180910390fd5b505050565b600080612665836113f8565b90508073ffffffffffffffffffffffffffffffffffffffff168473ffffffffffffffffffffffffffffffffffffffff1614806126a757506126a68185612253565b5b806126e557508373ffffffffffffffffffffffffffffffffffffffff166126cd84610cd1565b73ffffffffffffffffffffffffffffffffffffffff16145b91505092915050565b8273ffffffffffffffffffffffffffffffffffffffff1661270e826113f8565b73ffffffffffffffffffffffffffffffffffffffff1614612764576040517f08c379a000000000000000000000000000000000000000000000000000000000815260040161275b906154af565b60405180910390fd5b600073ffffffffffffffffffffffffffffffffffffffff168273ffffffffffffffffffffffffffffffffffffffff16036127d3576040517f08c379a00000000000000000000000000000000000000000000000000000000081526004016127ca90615541565b60405180910390fd5b6127e083838360016130a5565b8273ffffffffffffffffffffffffffffffffffffffff16612800826113f8565b73ffffffffffffffffffffffffffffffffffffffff1614612856576040517f08c379a000000000000000000000000000000000000000000000000000000000815260040161284d906154af565b60405180910390fd5b6004600082815260200190815260200160002060006101000a81549073ffffffffffffffffffffffffffffffffffffffff02191690556001600360008573ffffffffffffffffffffffffffffffffffffffff1673ffffffffffffffffffffffffffffffffffffffff168152602001908152602001600020600082825403925050819055506001600360008473ffffffffffffffffffffffffffffffffffffffff1673ffffffffffffffffffffffffffffffffffffffff16815260200190815260200160002060008282540192505081905550816002600083815260200190815260200160002060006101000a81548173ffffffffffffffffffffffffffffffffffffffff021916908373ffffffffffffffffffffffffffffffffffffffff160217905550808273ffffffffffffffffffffffffffffffffffffffff168473ffffffffffffffffffffffffffffffffffffffff167fddf252ad1be2c89b69c2b068fc378daa952ba7f163c4a11628f55a4df523b3ef60405160405180910390a46129e283838360016130ab565b505050565b6129ef610b55565b73ffffffffffffffffffffffffffffffffffffffff16612a0d611649565b73ffffffffffffffffffffffffffffffffffffffff1614612a63576040517f08c379a0000000000000000000000000000000000000000000000000000000008152600401612a5a906155ad565b60405180910390fd5b565b612ae68363a9059cbb60e01b8484604051602401612a84929190613a17565b604051602081830303815290604052907bffffffffffffffffffffffffffffffffffffffffffffffffffffffff19166020820180517bffffffffffffffffffffffffffffffffffffffffffffffffffffffff83818316178352505050506130b1565b505050565b60006002600083815260200190815260200160002060009054906101000a900473ffffffffffffffffffffffffffffffffffffffff169050919050565b6000600660009054906101000a900473ffffffffffffffffffffffffffffffffffffffff16905081600660006101000a81548173ffffffffffffffffffffffffffffffffffffffff021916908373ffffffffffffffffffffffffffffffffffffffff1602179055508173ffffffffffffffffffffffffffffffffffffffff168173ffffffffffffffffffffffffffffffffffffffff167f8be0079c531659141344cd1fd0a4f28419497f9722a3daafe3b4186f6b6457e060405160405180910390a35050565b600082612bfb8584613179565b1490509392505050565b612c0d6131cf565b612c17601961321e565b6000612c236019612557565b9050612c2f3382613234565b50612c38613252565b565b8173ffffffffffffffffffffffffffffffffffffffff168373ffffffffffffffffffffffffffffffffffffffff1603612ca8576040517f08c379a0000000000000000000000000000000000000000000000000000000008152600401612c9f90615619565b60405180910390fd5b80600560008573ffffffffffffffffffffffffffffffffffffffff1673ffffffffffffffffffffffffffffffffffffffff16815260200190815260200160002060008473ffffffffffffffffffffffffffffffffffffffff1673ffffffffffffffffffffffffffffffffffffffff16815260200190815260200160002060006101000a81548160ff0219169083151502179055508173ffffffffffffffffffffffffffffffffffffffff168373ffffffffffffffffffffffffffffffffffffffff167f17307eab39ab6107e8899845ad3d59bd9653f200f220920489ca2b5937696c3183604051612d999190613af4565b60405180910390a3505050565b600081600854600a60008773ffffffffffffffffffffffffffffffffffffffff1673ffffffffffffffffffffffffffffffffffffffff1681526020019081526020016000205485612df79190614dd8565b612e019190615668565b612e0b9190615699565b90509392505050565b612e1f8484846126ee565b612e2b8484848461325c565b612e6a576040517f08c379a0000000000000000000000000000000000000000000000000000000008152600401612e619061573f565b60405180910390fd5b50505050565b60008073ffffffffffffffffffffffffffffffffffffffff16612e9283612aeb565b73ffffffffffffffffffffffffffffffffffffffff1614159050919050565b606060128054612ec090614330565b80601f0160208091040260200160405190810160405280929190818152602001828054612eec90614330565b8015612f395780601f10612f0e57610100808354040283529160200191612f39565b820191906000526020600020905b815481529060010190602001808311612f1c57829003601f168201915b5050505050905090565b606060006001612f52846133e3565b01905060008167ffffffffffffffff811115612f7157612f70613e02565b5b6040519080825280601f01601f191660200182016040528015612fa35781602001600182028036833780820191505090505b509050600082602001820190505b600115613006578080600190039150507f3031323334353637383961626364656600000000000000000000000000000000600a86061a8153600a8581612ffa57612ff9615639565b5b04945060008503612fb1575b819350505050919050565b6000600560008473ffffffffffffffffffffffffffffffffffffffff1673ffffffffffffffffffffffffffffffffffffffff16815260200190815260200160002060008373ffffffffffffffffffffffffffffffffffffffff1673ffffffffffffffffffffffffffffffffffffffff16815260200190815260200160002060009054906101000a900460ff16905092915050565b50505050565b50505050565b6000613113826040518060400160405280602081526020017f5361666545524332303a206c6f772d6c6576656c2063616c6c206661696c65648152508573ffffffffffffffffffffffffffffffffffffffff166135369092919063ffffffff16565b90506000815114806131355750808060200190518101906131349190615774565b5b613174576040517f08c379a000000000000000000000000000000000000000000000000000000000815260040161316b90615813565b60405180910390fd5b505050565b60008082905060005b84518110156131c4576131af828683815181106131a2576131a1614a98565b5b602002602001015161354e565b915080806131bc90614eac565b915050613182565b508091505092915050565b600260075403613214576040517f08c379a000000000000000000000000000000000000000000000000000000000815260040161320b9061587f565b60405180910390fd5b6002600781905550565b6001816000016000828254019250508190555050565b61324e828260405180602001604052806000815250613579565b5050565b6001600781905550565b600061327d8473ffffffffffffffffffffffffffffffffffffffff166135d4565b156133d6578373ffffffffffffffffffffffffffffffffffffffff1663150b7a026132a6610b55565b8786866040518563ffffffff1660e01b81526004016132c894939291906158f4565b6020604051808303816000875af192505050801561330457506040513d601f19601f820116820180604052508101906133019190615955565b60015b613386573d8060008114613334576040519150601f19603f3d011682016040523d82523d6000602084013e613339565b606091505b50600081510361337e576040517f08c379a00000000000000000000000000000000000000000000000000000000081526004016133759061573f565b60405180910390fd5b805181602001fd5b63150b7a0260e01b7bffffffffffffffffffffffffffffffffffffffffffffffffffffffff1916817bffffffffffffffffffffffffffffffffffffffffffffffffffffffff1916149150506133db565b600190505b949350505050565b600080600090507a184f03e93ff9f4daa797ed6e38ed64bf6a1f0100000000000000008310613441577a184f03e93ff9f4daa797ed6e38ed64bf6a1f010000000000000000838161343757613436615639565b5b0492506040810190505b6d04ee2d6d415b85acef8100000000831061347e576d04ee2d6d415b85acef8100000000838161347457613473615639565b5b0492506020810190505b662386f26fc1000083106134ad57662386f26fc1000083816134a3576134a2615639565b5b0492506010810190505b6305f5e10083106134d6576305f5e10083816134cc576134cb615639565b5b0492506008810190505b61271083106134fb5761271083816134f1576134f0615639565b5b0492506004810190505b6064831061351e576064838161351457613513615639565b5b0492506002810190505b600a831061352d576001810190505b80915050919050565b606061354584846000856135f7565b90509392505050565b60008183106135665761356182846136c4565b613571565b61357083836136c4565b5b905092915050565b61358383836136db565b613590600084848461325c565b6135cf576040517f08c379a00000000000000000000000000000000000000000000000000000000081526004016135c69061573f565b60405180910390fd5b505050565b6000808273ffffffffffffffffffffffffffffffffffffffff163b119050919050565b60608247101561363c576040517f08c379a0000000000000000000000000000000000000000000000000000000008152600401613633906159f4565b60405180910390fd5b6000808673ffffffffffffffffffffffffffffffffffffffff1685876040516136659190615a45565b60006040518083038185875af1925050503d80600081146136a2576040519150601f19603f3d011682016040523d82523d6000602084013e6136a7565b606091505b50915091506136b8878383876138f8565b92505050949350505050565b600082600052816020526040600020905092915050565b600073ffffffffffffffffffffffffffffffffffffffff168273ffffffffffffffffffffffffffffffffffffffff160361374a576040517f08c379a000000000000000000000000000000000000000000000000000000000815260040161374190615aa8565b60405180910390fd5b61375381612e70565b15613793576040517f08c379a000000000000000000000000000000000000000000000000000000000815260040161378a90615b14565b60405180910390fd5b6137a16000838360016130a5565b6137aa81612e70565b156137ea576040517f08c379a00000000000000000000000000000000000000000000000000000000081526004016137e190615b14565b60405180910390fd5b6001600360008473ffffffffffffffffffffffffffffffffffffffff1673ffffffffffffffffffffffffffffffffffffffff16815260200190815260200160002060008282540192505081905550816002600083815260200190815260200160002060006101000a81548173ffffffffffffffffffffffffffffffffffffffff021916908373ffffffffffffffffffffffffffffffffffffffff160217905550808273ffffffffffffffffffffffffffffffffffffffff16600073ffffffffffffffffffffffffffffffffffffffff167fddf252ad1be2c89b69c2b068fc378daa952ba7f163c4a11628f55a4df523b3ef60405160405180910390a46138f46000838360016130ab565b5050565b6060831561395a57600083510361395257613912856135d4565b613951576040517f08c379a000000000000000000000000000000000000000000000000000000000815260040161394890615b80565b60405180910390fd5b5b829050613965565b613964838361396d565b5b949350505050565b6000825111156139805781518083602001fd5b806040517f08c379a00000000000000000000000000000000000000000000000000000000081526004016139b49190613b9f565b60405180910390fd5b600073ffffffffffffffffffffffffffffffffffffffff82169050919050565b60006139e8826139bd565b9050919050565b6139f8816139dd565b82525050565b6000819050919050565b613a11816139fe565b82525050565b6000604082019050613a2c60008301856139ef565b613a396020830184613a08565b9392505050565b6000604051905090565b600080fd5b600080fd5b60007fffffffff0000000000000000000000000000000000000000000000000000000082169050919050565b613a8981613a54565b8114613a9457600080fd5b50565b600081359050613aa681613a80565b92915050565b600060208284031215613ac257613ac1613a4a565b5b6000613ad084828501613a97565b91505092915050565b60008115159050919050565b613aee81613ad9565b82525050565b6000602082019050613b096000830184613ae5565b92915050565b600081519050919050565b600082825260208201905092915050565b60005b83811015613b49578082015181840152602081019050613b2e565b60008484015250505050565b6000601f19601f8301169050919050565b6000613b7182613b0f565b613b7b8185613b1a565b9350613b8b818560208601613b2b565b613b9481613b55565b840191505092915050565b60006020820190508181036000830152613bb98184613b66565b905092915050565b613bca816139fe565b8114613bd557600080fd5b50565b600081359050613be781613bc1565b92915050565b600060208284031215613c0357613c02613a4a565b5b6000613c1184828501613bd8565b91505092915050565b6000602082019050613c2f60008301846139ef565b92915050565b613c3e816139dd565b8114613c4957600080fd5b50565b600081359050613c5b81613c35565b92915050565b60008060408385031215613c7857613c77613a4a565b5b6000613c8685828601613c4c565b9250506020613c9785828601613bd8565b9150509250929050565b6000602082019050613cb66000830184613a08565b92915050565b6000613cc7826139bd565b9050919050565b613cd781613cbc565b8114613ce257600080fd5b50565b600081359050613cf481613cce565b92915050565b600060208284031215613d1057613d0f613a4a565b5b6000613d1e84828501613ce5565b91505092915050565b600080600060608486031215613d4057613d3f613a4a565b5b6000613d4e86828701613c4c565b9350506020613d5f86828701613c4c565b9250506040613d7086828701613bd8565b9150509250925092565b6000613d85826139dd565b9050919050565b613d9581613d7a565b8114613da057600080fd5b50565b600081359050613db281613d8c565b92915050565b60008060408385031215613dcf57613dce613a4a565b5b6000613ddd85828601613da3565b9250506020613dee85828601613c4c565b9150509250929050565b600080fd5b600080fd5b7f4e487b7100000000000000000000000000000000000000000000000000000000600052604160045260246000fd5b613e3a82613b55565b810181811067ffffffffffffffff82111715613e5957613e58613e02565b5b80604052505050565b6000613e6c613a40565b9050613e788282613e31565b919050565b600067ffffffffffffffff821115613e9857613e97613e02565b5b613ea182613b55565b9050602081019050919050565b82818337600083830152505050565b6000613ed0613ecb84613e7d565b613e62565b905082815260208101848484011115613eec57613eeb613dfd565b5b613ef7848285613eae565b509392505050565b600082601f830112613f1457613f13613df8565b5b8135613f24848260208601613ebd565b91505092915050565b600060208284031215613f4357613f42613a4a565b5b600082013567ffffffffffffffff811115613f6157613f60613a4f565b5b613f6d84828501613eff565b91505092915050565b600060208284031215613f8c57613f8b613a4a565b5b6000613f9a84828501613c4c565b91505092915050565b6000819050919050565b613fb681613fa3565b8114613fc157600080fd5b50565b600081359050613fd381613fad565b92915050565b600060208284031215613fef57613fee613a4a565b5b6000613ffd84828501613fc4565b91505092915050565b600080fd5b600080fd5b60008083601f84011261402657614025613df8565b5b8235905067ffffffffffffffff81111561404357614042614006565b5b60208301915083602082028301111561405f5761405e61400b565b5b9250929050565b600080600080606085870312156140805761407f613a4a565b5b600061408e87828801613c4c565b945050602061409f87828801613bd8565b935050604085013567ffffffffffffffff8111156140c0576140bf613a4f565b5b6140cc87828801614010565b925092505092959194509250565b6140e381613ad9565b81146140ee57600080fd5b50565b600081359050614100816140da565b92915050565b6000806040838503121561411d5761411c613a4a565b5b600061412b85828601613c4c565b925050602061413c858286016140f1565b9150509250929050565b600067ffffffffffffffff82111561416157614160613e02565b5b61416a82613b55565b9050602081019050919050565b600061418a61418584614146565b613e62565b9050828152602081018484840111156141a6576141a5613dfd565b5b6141b1848285613eae565b509392505050565b600082601f8301126141ce576141cd613df8565b5b81356141de848260208601614177565b91505092915050565b6000806000806080858703121561420157614200613a4a565b5b600061420f87828801613c4c565b945050602061422087828801613c4c565b935050604061423187828801613bd8565b925050606085013567ffffffffffffffff81111561425257614251613a4f565b5b61425e878288016141b9565b91505092959194509250565b6000602082840312156142805761427f613a4a565b5b600061428e84828501613da3565b91505092915050565b600080604083850312156142ae576142ad613a4a565b5b60006142bc85828601613c4c565b92505060206142cd85828601613c4c565b9150509250929050565b6142e081613fa3565b82525050565b60006020820190506142fb60008301846142d7565b92915050565b7f4e487b7100000000000000000000000000000000000000000000000000000000600052602260045260246000fd5b6000600282049050600182168061434857607f821691505b60208210810361435b5761435a614301565b5b50919050565b7f4552433732313a20617070726f76616c20746f2063757272656e74206f776e6560008201527f7200000000000000000000000000000000000000000000000000000000000000602082015250565b60006143bd602183613b1a565b91506143c882614361565b604082019050919050565b600060208201905081810360008301526143ec816143b0565b9050919050565b7f4552433732313a20617070726f76652063616c6c6572206973206e6f7420746f60008201527f6b656e206f776e6572206f7220617070726f76656420666f7220616c6c000000602082015250565b600061444f603d83613b1a565b915061445a826143f3565b604082019050919050565b6000602082019050818103600083015261447e81614442565b9050919050565b7f5061796d656e7453706c69747465723a206163636f756e7420686173206e6f2060008201527f7368617265730000000000000000000000000000000000000000000000000000602082015250565b60006144e1602683613b1a565b91506144ec82614485565b604082019050919050565b60006020820190508181036000830152614510816144d4565b9050919050565b7f5061796d656e7453706c69747465723a206163636f756e74206973206e6f742060008201527f647565207061796d656e74000000000000000000000000000000000000000000602082015250565b6000614573602b83613b1a565b915061457e82614517565b604082019050919050565b600060208201905081810360008301526145a281614566565b9050919050565b7f4e487b7100000000000000000000000000000000000000000000000000000000600052601160045260246000fd5b60006145e3826139fe565b91506145ee836139fe565b9250828201905080821115614606576146056145a9565b5b92915050565b6000819050919050565b600061463161462c614627846139bd565b61460c565b6139bd565b9050919050565b600061464382614616565b9050919050565b600061465582614638565b9050919050565b6146658161464a565b82525050565b6000604082019050614680600083018561465c565b61468d6020830184613a08565b9392505050565b7f4552433732313a2063616c6c6572206973206e6f7420746f6b656e206f776e6560008201527f72206f7220617070726f76656400000000000000000000000000000000000000602082015250565b60006146f0602d83613b1a565b91506146fb82614694565b604082019050919050565b6000602082019050818103600083015261471f816146e3565b9050919050565b60008190508160005260206000209050919050565b60006020601f8301049050919050565b600082821b905092915050565b6000600883026147887fffffffffffffffffffffffffffffffffffffffffffffffffffffffffffffffff8261474b565b614792868361474b565b95508019841693508086168417925050509392505050565b60006147c56147c06147bb846139fe565b61460c565b6139fe565b9050919050565b6000819050919050565b6147df836147aa565b6147f36147eb826147cc565b848454614758565b825550505050565b600090565b6148086147fb565b6148138184846147d6565b505050565b5b818110156148375761482c600082614800565b600181019050614819565b5050565b601f82111561487c5761484d81614726565b6148568461473b565b81016020851015614865578190505b6148796148718561473b565b830182614818565b50505b505050565b600082821c905092915050565b600061489f60001984600802614881565b1980831691505092915050565b60006148b8838361488e565b9150826002028217905092915050565b6148d182613b0f565b67ffffffffffffffff8111156148ea576148e9613e02565b5b6148f48254614330565b6148ff82828561483b565b600060209050601f8311600181146149325760008415614920578287015190505b61492a85826148ac565b865550614992565b601f19841661494086614726565b60005b8281101561496857848901518255600182019150602085019450602081019050614943565b868310156149855784890151614981601f89168261488e565b8355505b6001600288020188555050505b505050505050565b7f4552433732313a20696e76616c696420746f6b656e2049440000000000000000600082015250565b60006149d0601883613b1a565b91506149db8261499a565b602082019050919050565b600060208201905081810360008301526149ff816149c3565b9050919050565b7f4552433732313a2061646472657373207a65726f206973206e6f74206120766160008201527f6c6964206f776e65720000000000000000000000000000000000000000000000602082015250565b6000614a62602983613b1a565b9150614a6d82614a06565b604082019050919050565b60006020820190508181036000830152614a9181614a55565b9050919050565b7f4e487b7100000000000000000000000000000000000000000000000000000000600052603260045260246000fd5b60008160601b9050919050565b6000614adf82614ac7565b9050919050565b6000614af182614ad4565b9050919050565b614b09614b04826139dd565b614ae6565b82525050565b6000614b1b8284614af8565b60148201915081905092915050565b7f4e6f7420616c6c6f776564206f726967696e0000000000000000000000000000600082015250565b6000614b60601283613b1a565b9150614b6b82614b2a565b602082019050919050565b60006020820190508181036000830152614b8f81614b53565b9050919050565b7f43727970746f50756e6b733a204e6f7420616c6c6f7765640000000000000000600082015250565b6000614bcc601883613b1a565b9150614bd782614b96565b602082019050919050565b60006020820190508181036000830152614bfb81614bbf565b9050919050565b7f43727970746f50756e6b733a2050726573616c65206973204f46460000000000600082015250565b6000614c38601b83613b1a565b9150614c4382614c02565b602082019050919050565b60006020820190508181036000830152614c6781614c2b565b9050919050565b7f43727970746f50756e6b733a20436f6e74726163742069732070617573656400600082015250565b6000614ca4601f83613b1a565b9150614caf82614c6e565b602082019050919050565b60006020820190508181036000830152614cd381614c97565b9050919050565b7f43727970746f50756e6b733a20596f752063616e2774206d696e7420736f206d60008201527f75636820746f6b656e7300000000000000000000000000000000000000000000602082015250565b6000614d36602a83613b1a565b9150614d4182614cda565b604082019050919050565b60006020820190508181036000830152614d6581614d29565b9050919050565b7f43727970746f50756e6b733a206d617820737570706c79206578636565646564600082015250565b6000614da2602083613b1a565b9150614dad82614d6c565b602082019050919050565b60006020820190508181036000830152614dd181614d95565b9050919050565b6000614de3826139fe565b9150614dee836139fe565b9250828202614dfc816139fe565b91508282048414831517614e1357614e126145a9565b5b5092915050565b7f43727970746f50756e6b733a204e6f7420656e6f75676820657468657273207360008201527f656e740000000000000000000000000000000000000000000000000000000000602082015250565b6000614e76602383613b1a565b9150614e8182614e1a565b604082019050919050565b60006020820190508181036000830152614ea581614e69565b9050919050565b6000614eb7826139fe565b91507fffffffffffffffffffffffffffffffffffffffffffffffffffffffffffffffff8203614ee957614ee86145a9565b5b600182019050919050565b7f43727970746f50756e6b733a205075626c696353616c65206973204f46460000600082015250565b6000614f2a601e83613b1a565b9150614f3582614ef4565b602082019050919050565b60006020820190508181036000830152614f5981614f1d565b9050919050565b7f43727970746f50756e6b733a207a65726f20616d6f756e740000000000000000600082015250565b6000614f96601883613b1a565b9150614fa182614f60565b602082019050919050565b60006020820190508181036000830152614fc581614f89565b9050919050565b7f43727970746f50756e6b733a204d617820737570706c79206578636565646564600082015250565b6000615002602083613b1a565b915061500d82614fcc565b602082019050919050565b6000602082019050818103600083015261503181614ff5565b9050919050565b60008151905061504781613bc1565b92915050565b60006020828403121561506357615062613a4a565b5b600061507184828501615038565b91505092915050565b7f4552433732314d657461646174613a2055524920717565727920666f72206e6f60008201527f6e6578697374656e7420746f6b656e0000000000000000000000000000000000602082015250565b60006150d6602f83613b1a565b91506150e18261507a565b604082019050919050565b60006020820190508181036000830152615105816150c9565b9050919050565b600081905092915050565b600061512282613b0f565b61512c818561510c565b935061513c818560208601613b2b565b80840191505092915050565b6000815461515581614330565b61515f818661510c565b9450600182166000811461517a576001811461518f576151c2565b60ff19831686528115158202860193506151c2565b61519885614726565b60005b838110156151ba5781548189015260018201915060208101905061519b565b838801955050505b50505092915050565b60006151d78286615117565b91506151e38285615117565b91506151ef8284615148565b9150819050949350505050565b6000615207826139dd565b9050919050565b615217816151fc565b811461522257600080fd5b50565b6000815190506152348161520e565b92915050565b6000602082840312156152505761524f613a4a565b5b600061525e84828501615225565b91505092915050565b7f4f776e61626c653a206e6577206f776e657220697320746865207a65726f206160008201527f6464726573730000000000000000000000000000000000000000000000000000602082015250565b60006152c3602683613b1a565b91506152ce82615267565b604082019050919050565b600060208201905081810360008301526152f2816152b6565b9050919050565b7f416464726573733a20696e73756666696369656e742062616c616e6365000000600082015250565b600061532f601d83613b1a565b915061533a826152f9565b602082019050919050565b6000602082019050818103600083015261535e81615322565b9050919050565b600081905092915050565b50565b6000615380600083615365565b915061538b82615370565b600082019050919050565b60006153a182615373565b9150819050919050565b7f416464726573733a20756e61626c6520746f2073656e642076616c75652c207260008201527f6563697069656e74206d61792068617665207265766572746564000000000000602082015250565b6000615407603a83613b1a565b9150615412826153ab565b604082019050919050565b60006020820190508181036000830152615436816153fa565b9050919050565b7f4552433732313a207472616e736665722066726f6d20696e636f72726563742060008201527f6f776e6572000000000000000000000000000000000000000000000000000000602082015250565b6000615499602583613b1a565b91506154a48261543d565b604082019050919050565b600060208201905081810360008301526154c88161548c565b9050919050565b7f4552433732313a207472616e7366657220746f20746865207a65726f2061646460008201527f7265737300000000000000000000000000000000000000000000000000000000602082015250565b600061552b602483613b1a565b9150615536826154cf565b604082019050919050565b6000602082019050818103600083015261555a8161551e565b9050919050565b7f4f776e61626c653a2063616c6c6572206973206e6f7420746865206f776e6572600082015250565b6000615597602083613b1a565b91506155a282615561565b602082019050919050565b600060208201905081810360008301526155c68161558a565b9050919050565b7f4552433732313a20617070726f766520746f2063616c6c657200000000000000600082015250565b6000615603601983613b1a565b915061560e826155cd565b602082019050919050565b60006020820190508181036000830152615632816155f6565b9050919050565b7f4e487b7100000000000000000000000000000000000000000000000000000000600052601260045260246000fd5b6000615673826139fe565b915061567e836139fe565b92508261568e5761568d615639565b5b828204905092915050565b60006156a4826139fe565b91506156af836139fe565b92508282039050818111156156c7576156c66145a9565b5b92915050565b7f4552433732313a207472616e7366657220746f206e6f6e20455243373231526560008201527f63656976657220696d706c656d656e7465720000000000000000000000000000602082015250565b6000615729603283613b1a565b9150615734826156cd565b604082019050919050565b600060208201905081810360008301526157588161571c565b9050919050565b60008151905061576e816140da565b92915050565b60006020828403121561578a57615789613a4a565b5b60006157988482850161575f565b91505092915050565b7f5361666545524332303a204552433230206f7065726174696f6e20646964206e60008201527f6f74207375636365656400000000000000000000000000000000000000000000602082015250565b60006157fd602a83613b1a565b9150615808826157a1565b604082019050919050565b6000602082019050818103600083015261582c816157f0565b9050919050565b7f5265656e7472616e637947756172643a207265656e7472616e742063616c6c00600082015250565b6000615869601f83613b1a565b915061587482615833565b602082019050919050565b600060208201905081810360008301526158988161585c565b9050919050565b600081519050919050565b600082825260208201905092915050565b60006158c68261589f565b6158d081856158aa565b93506158e0818560208601613b2b565b6158e981613b55565b840191505092915050565b600060808201905061590960008301876139ef565b61591660208301866139ef565b6159236040830185613a08565b818103606083015261593581846158bb565b905095945050505050565b60008151905061594f81613a80565b92915050565b60006020828403121561596b5761596a613a4a565b5b600061597984828501615940565b91505092915050565b7f416464726573733a20696e73756666696369656e742062616c616e636520666f60008201527f722063616c6c0000000000000000000000000000000000000000000000000000602082015250565b60006159de602683613b1a565b91506159e982615982565b604082019050919050565b60006020820190508181036000830152615a0d816159d1565b9050919050565b6000615a1f8261589f565b615a298185615365565b9350615a39818560208601613b2b565b80840191505092915050565b6000615a518284615a14565b915081905092915050565b7f4552433732313a206d696e7420746f20746865207a65726f2061646472657373600082015250565b6000615a92602083613b1a565b9150615a9d82615a5c565b602082019050919050565b60006020820190508181036000830152615ac181615a85565b9050919050565b7f4552433732313a20746f6b656e20616c7265616479206d696e74656400000000600082015250565b6000615afe601c83613b1a565b9150615b0982615ac8565b602082019050919050565b60006020820190508181036000830152615b2d81615af1565b9050919050565b7f416464726573733a2063616c6c20746f206e6f6e2d636f6e7472616374000000600082015250565b6000615b6a601d83613b1a565b9150615b7582615b34565b602082019050919050565b60006020820190508181036000830152615b9981615b5d565b905091905056fea2646970667358221220d49a6a98b219d8267a56e20f91cd0c46171ad75a8ad6ab93cc094e5c732c3d1b64736f6c63430008110033697066733a2f2f516d566570375555755463626b7475363942684d72314a484c7a484842796a76746765597753753775576e554d392f68696464656e2e6a736f6e",
  "linkReferences": {},
  "deployedLinkReferences": {}
}