{
  "_format": "hh-sol-artifact-1",
  "contractName": "Minter",
  "sourceName": "contracts/Minter.sol",
  "abi": [
    {
      "inputs": [],
      "stateMutability": "nonpayable",
      "type": "constructor"
    },
    {
      "anonymous": false,
      "inputs": [
        {
          "indexed": true,
          "internalType": "address",
          "name": "owner",
          "type": "address"
        },
        {
          "indexed": true,
          "internalType": "address",
          "name": "approved",
          "type": "address"
        },
        {
          "indexed": true,
          "internalType": "uint256",
          "name": "tokenId",
          "type": "uint256"
        }
      ],
      "name": "Approval",
      "type": "event"
    },
    {
      "anonymous": false,
      "inputs": [
        {
          "indexed": true,
          "internalType": "address",
          "name": "owner",
          "type": "address"
        },
        {
          "indexed": true,
          "internalType": "address",
          "name": "operator",
          "type": "address"
        },
        {
          "indexed": false,
          "internalType": "bool",
          "name": "approved",
          "type": "bool"
        }
      ],
      "name": "ApprovalForAll",
      "type": "event"
    },
    {
      "anonymous": false,
      "inputs": [
        {
          "indexed": false,
          "internalType": "uint256",
          "name": "_fromTokenId",
          "type": "uint256"
        },
        {
          "indexed": false,
          "internalType": "uint256",
          "name": "_toTokenId",
          "type": "uint256"
        }
      ],
      "name": "BatchMetadataUpdate",
      "type": "event"
    },
    {
      "anonymous": false,
      "inputs": [
        {
          "indexed": false,
          "internalType": "uint256",
          "name": "_tokenId",
          "type": "uint256"
        }
      ],
      "name": "MetadataUpdate",
      "type": "event"
    },
    {
      "anonymous": false,
      "inputs": [
        {
          "indexed": true,
          "internalType": "address",
          "name": "from",
          "type": "address"
        },
        {
          "indexed": true,
          "internalType": "address",
          "name": "to",
          "type": "address"
        },
        {
          "indexed": true,
          "internalType": "uint256",
          "name": "tokenId",
          "type": "uint256"
        }
      ],
      "name": "Transfer",
      "type": "event"
    },
    {
      "inputs": [],
      "name": "_tokenIds",
      "outputs": [
        {
          "internalType": "uint256",
          "name": "_value",
          "type": "uint256"
        }
      ],
      "stateMutability": "view",
      "type": "function"
    },
    {
      "inputs": [
        {
          "internalType": "address",
          "name": "to",
          "type": "address"
        },
        {
          "internalType": "uint256",
          "name": "tokenId",
          "type": "uint256"
        }
      ],
      "name": "approve",
      "outputs": [],
      "stateMutability": "nonpayable",
      "type": "function"
    },
    {
      "inputs": [
        {
          "internalType": "address",
          "name": "owner",
          "type": "address"
        }
      ],
      "name": "balanceOf",
      "outputs": [
        {
          "internalType": "uint256",
          "name": "",
          "type": "uint256"
        }
      ],
      "stateMutability": "view",
      "type": "function"
    },
    {
      "inputs": [
        {
          "internalType": "string",
          "name": "tokenURI",
          "type": "string"
        }
      ],
      "name": "createFile",
      "outputs": [
        {
          "internalType": "uint256",
          "name": "",
          "type": "uint256"
        }
      ],
      "stateMutability": "payable",
      "type": "function"
    },
    {
      "inputs": [
        {
          "internalType": "uint256",
          "name": "tokenId",
          "type": "uint256"
        }
      ],
      "name": "getApproved",
      "outputs": [
        {
          "internalType": "address",
          "name": "",
          "type": "address"
        }
      ],
      "stateMutability": "view",
      "type": "function"
    },
    {
      "inputs": [
        {
          "internalType": "address",
          "name": "owner",
          "type": "address"
        },
        {
          "internalType": "address",
          "name": "operator",
          "type": "address"
        }
      ],
      "name": "isApprovedForAll",
      "outputs": [
        {
          "internalType": "bool",
          "name": "",
          "type": "bool"
        }
      ],
      "stateMutability": "view",
      "type": "function"
    },
    {
      "inputs": [],
      "name": "name",
      "outputs": [
        {
          "internalType": "string",
          "name": "",
          "type": "string"
        }
      ],
      "stateMutability": "view",
      "type": "function"
    },
    {
      "inputs": [
        {
          "internalType": "uint256",
          "name": "tokenId",
          "type": "uint256"
        }
      ],
      "name": "ownerOf",
      "outputs": [
        {
          "internalType": "address",
          "name": "",
          "type": "address"
        }
      ],
      "stateMutability": "view",
      "type": "function"
    },
    {
      "inputs": [
        {
          "internalType": "address",
          "name": "from",
          "type": "address"
        },
        {
          "internalType": "address",
          "name": "to",
          "type": "address"
        },
        {
          "internalType": "uint256",
          "name": "tokenId",
          "type": "uint256"
        }
      ],
      "name": "safeTransferFrom",
      "outputs": [],
      "stateMutability": "nonpayable",
      "type": "function"
    },
    {
      "inputs": [
        {
          "internalType": "address",
          "name": "from",
          "type": "address"
        },
        {
          "internalType": "address",
          "name": "to",
          "type": "address"
        },
        {
          "internalType": "uint256",
          "name": "tokenId",
          "type": "uint256"
        },
        {
          "internalType": "bytes",
          "name": "data",
          "type": "bytes"
        }
      ],
      "name": "safeTransferFrom",
      "outputs": [],
      "stateMutability": "nonpayable",
      "type": "function"
    },
    {
      "inputs": [
        {
          "internalType": "address",
          "name": "operator",
          "type": "address"
        },
        {
          "internalType": "bool",
          "name": "approved",
          "type": "bool"
        }
      ],
      "name": "setApprovalForAll",
      "outputs": [],
      "stateMutability": "nonpayable",
      "type": "function"
    },
    {
      "inputs": [
        {
          "internalType": "bytes4",
          "name": "interfaceId",
          "type": "bytes4"
        }
      ],
      "name": "supportsInterface",
      "outputs": [
        {
          "internalType": "bool",
          "name": "",
          "type": "bool"
        }
      ],
      "stateMutability": "view",
      "type": "function"
    },
    {
      "inputs": [],
      "name": "symbol",
      "outputs": [
        {
          "internalType": "string",
          "name": "",
          "type": "string"
        }
      ],
      "stateMutability": "view",
      "type": "function"
    },
    {
      "inputs": [
        {
          "internalType": "uint256",
          "name": "tokenId",
          "type": "uint256"
        }
      ],
      "name": "tokenURI",
      "outputs": [
        {
          "internalType": "string",
          "name": "",
          "type": "string"
        }
      ],
      "stateMutability": "view",
      "type": "function"
    },
    {
      "inputs": [
        {
          "internalType": "address",
          "name": "from",
          "type": "address"
        },
        {
          "internalType": "address",
          "name": "to",
          "type": "address"
        },
        {
          "internalType": "uint256",
          "name": "tokenId",
          "type": "uint256"
        }
      ],
      "name": "transferFrom",
      "outputs": [],
      "stateMutability": "nonpayable",
      "type": "function"
    },
    {
      "inputs": [
        {
          "internalType": "uint256",
          "name": "value",
          "type": "uint256"
        }
      ],
      "name": "withdraw",
      "outputs": [],
      "stateMutability": "nonpayable",
      "type": "function"
    }
  ],
  "bytecode": "0x60806040523480156200001157600080fd5b506040518060400160405280600e81526020017f42616461677279204d696e7465720000000000000000000000000000000000008152506040518060400160405280600581526020017f424144475900000000000000000000000000000000000000000000000000000081525081600090816200008f919062000365565b508060019081620000a1919062000365565b50505033600960006101000a81548173ffffffffffffffffffffffffffffffffffffffff021916908373ffffffffffffffffffffffffffffffffffffffff1602179055506200044c565b600081519050919050565b7f4e487b7100000000000000000000000000000000000000000000000000000000600052604160045260246000fd5b7f4e487b7100000000000000000000000000000000000000000000000000000000600052602260045260246000fd5b600060028204905060018216806200016d57607f821691505b60208210810362000183576200018262000125565b5b50919050565b60008190508160005260206000209050919050565b60006020601f8301049050919050565b600082821b905092915050565b600060088302620001ed7fffffffffffffffffffffffffffffffffffffffffffffffffffffffffffffffff82620001ae565b620001f98683620001ae565b95508019841693508086168417925050509392505050565b6000819050919050565b6000819050919050565b600062000246620002406200023a8462000211565b6200021b565b62000211565b9050919050565b6000819050919050565b620002628362000225565b6200027a62000271826200024d565b848454620001bb565b825550505050565b600090565b6200029162000282565b6200029e81848462000257565b505050565b5b81811015620002c657620002ba60008262000287565b600181019050620002a4565b5050565b601f8211156200031557620002df8162000189565b620002ea846200019e565b81016020851015620002fa578190505b6200031262000309856200019e565b830182620002a3565b50505b505050565b600082821c905092915050565b60006200033a600019846008026200031a565b1980831691505092915050565b600062000355838362000327565b9150826002028217905092915050565b6200037082620000eb565b67ffffffffffffffff8111156200038c576200038b620000f6565b5b62000398825462000154565b620003a5828285620002ca565b600060209050601f831160018114620003dd5760008415620003c8578287015190505b620003d4858262000347565b86555062000444565b601f198416620003ed8662000189565b60005b828110156200041757848901518255600182019150602085019450602081019050620003f0565b8683101562000437578489015162000433601f89168262000327565b8355505b6001600288020188555050505b505050505050565b612f0d806200045c6000396000f3fe6080604052600436106100f35760003560e01c80636352211e1161008a578063aa46a40011610059578063aa46a4001461033f578063b88d4fde1461036a578063c87b56dd14610393578063e985e9c5146103d0576100f3565b80636352211e1461027157806370a08231146102ae57806395d89b41146102eb578063a22cb46514610316576100f3565b806323b872dd116100c657806323b872dd146101c65780632e1a7d4d146101ef57806342842e0e146102185780634dfdc4fb14610241576100f3565b806301ffc9a7146100f857806306fdde0314610135578063081812fc14610160578063095ea7b31461019d575b600080fd5b34801561010457600080fd5b5061011f600480360381019061011a9190611c85565b61040d565b60405161012c9190611ccd565b60405180910390f35b34801561014157600080fd5b5061014a61046e565b6040516101579190611d78565b60405180910390f35b34801561016c57600080fd5b5061018760048036038101906101829190611dd0565b610500565b6040516101949190611e3e565b60405180910390f35b3480156101a957600080fd5b506101c460048036038101906101bf9190611e85565b610546565b005b3480156101d257600080fd5b506101ed60048036038101906101e89190611ec5565b61065d565b005b3480156101fb57600080fd5b5061021660048036038101906102119190611dd0565b6106bd565b005b34801561022457600080fd5b5061023f600480360381019061023a9190611ec5565b610862565b005b61025b6004803603810190610256919061204d565b610882565b60405161026891906120a5565b60405180910390f35b34801561027d57600080fd5b5061029860048036038101906102939190611dd0565b6108b9565b6040516102a59190611e3e565b60405180910390f35b3480156102ba57600080fd5b506102d560048036038101906102d091906120c0565b61093f565b6040516102e291906120a5565b60405180910390f35b3480156102f757600080fd5b506103006109f6565b60405161030d9190611d78565b60405180910390f35b34801561032257600080fd5b5061033d60048036038101906103389190612119565b610a88565b005b34801561034b57600080fd5b50610354610a9e565b60405161036191906120a5565b60405180910390f35b34801561037657600080fd5b50610391600480360381019061038c91906121fa565b610aaa565b005b34801561039f57600080fd5b506103ba60048036038101906103b59190611dd0565b610b0c565b6040516103c79190611d78565b60405180910390f35b3480156103dc57600080fd5b506103f760048036038101906103f2919061227d565b610c1e565b6040516104049190611ccd565b60405180910390f35b6000634906490660e01b7bffffffffffffffffffffffffffffffffffffffffffffffffffffffff1916827bffffffffffffffffffffffffffffffffffffffffffffffffffffffff19161480610467575061046682610cb2565b5b9050919050565b60606000805461047d906122ec565b80601f01602080910402602001604051908101604052809291908181526020018280546104a9906122ec565b80156104f65780601f106104cb576101008083540402835291602001916104f6565b820191906000526020600020905b8154815290600101906020018083116104d957829003601f168201915b5050505050905090565b600061050b82610d94565b6004600083815260200190815260200160002060009054906101000a900473ffffffffffffffffffffffffffffffffffffffff169050919050565b6000610551826108b9565b90508073ffffffffffffffffffffffffffffffffffffffff168373ffffffffffffffffffffffffffffffffffffffff16036105c1576040517f08c379a00000000000000000000000000000000000000000000000000000000081526004016105b89061238f565b60405180910390fd5b8073ffffffffffffffffffffffffffffffffffffffff166105e0610ddf565b73ffffffffffffffffffffffffffffffffffffffff16148061060f575061060e81610609610ddf565b610c1e565b5b61064e576040517f08c379a000000000000000000000000000000000000000000000000000000000815260040161064590612421565b60405180910390fd5b6106588383610de7565b505050565b61066e610668610ddf565b82610ea0565b6106ad576040517f08c379a00000000000000000000000000000000000000000000000000000000081526004016106a4906124b3565b60405180910390fd5b6106b8838383610f35565b505050565b600960009054906101000a900473ffffffffffffffffffffffffffffffffffffffff1673ffffffffffffffffffffffffffffffffffffffff163373ffffffffffffffffffffffffffffffffffffffff161461074d576040517f08c379a00000000000000000000000000000000000000000000000000000000081526004016107449061251f565b60405180910390fd5b47811115610790576040517f08c379a00000000000000000000000000000000000000000000000000000000081526004016107879061258b565b60405180910390fd5b6000600960009054906101000a900473ffffffffffffffffffffffffffffffffffffffff1673ffffffffffffffffffffffffffffffffffffffff16826040516107d8906125dc565b60006040518083038185875af1925050503d8060008114610815576040519150601f19603f3d011682016040523d82523d6000602084013e61081a565b606091505b505090508061085e576040517f08c379a00000000000000000000000000000000000000000000000000000000081526004016108559061263d565b60405180910390fd5b5050565b61087d83838360405180602001604052806000815250610aaa565b505050565b600061088e600761122e565b600061089a6007611244565b90506108a63382611252565b6108b0818461146f565b80915050919050565b6000806108c583611513565b9050600073ffffffffffffffffffffffffffffffffffffffff168173ffffffffffffffffffffffffffffffffffffffff1603610936576040517f08c379a000000000000000000000000000000000000000000000000000000000815260040161092d906126a9565b60405180910390fd5b80915050919050565b60008073ffffffffffffffffffffffffffffffffffffffff168273ffffffffffffffffffffffffffffffffffffffff16036109af576040517f08c379a00000000000000000000000000000000000000000000000000000000081526004016109a69061273b565b60405180910390fd5b600360008373ffffffffffffffffffffffffffffffffffffffff1673ffffffffffffffffffffffffffffffffffffffff168152602001908152602001600020549050919050565b606060018054610a05906122ec565b80601f0160208091040260200160405190810160405280929190818152602001828054610a31906122ec565b8015610a7e5780601f10610a5357610100808354040283529160200191610a7e565b820191906000526020600020905b815481529060010190602001808311610a6157829003601f168201915b5050505050905090565b610a9a610a93610ddf565b8383611550565b5050565b60078060000154905081565b610abb610ab5610ddf565b83610ea0565b610afa576040517f08c379a0000000000000000000000000000000000000000000000000000000008152600401610af1906124b3565b60405180910390fd5b610b06848484846116bc565b50505050565b6060610b1782610d94565b6000600660008481526020019081526020016000208054610b37906122ec565b80601f0160208091040260200160405190810160405280929190818152602001828054610b63906122ec565b8015610bb05780601f10610b8557610100808354040283529160200191610bb0565b820191906000526020600020905b815481529060010190602001808311610b9357829003601f168201915b505050505090506000610bc1611718565b90506000815103610bd6578192505050610c19565b600082511115610c0b578082604051602001610bf3929190612797565b60405160208183030381529060405292505050610c19565b610c148461172f565b925050505b919050565b6000600560008473ffffffffffffffffffffffffffffffffffffffff1673ffffffffffffffffffffffffffffffffffffffff16815260200190815260200160002060008373ffffffffffffffffffffffffffffffffffffffff1673ffffffffffffffffffffffffffffffffffffffff16815260200190815260200160002060009054906101000a900460ff16905092915050565b60007f80ac58cd000000000000000000000000000000000000000000000000000000007bffffffffffffffffffffffffffffffffffffffffffffffffffffffff1916827bffffffffffffffffffffffffffffffffffffffffffffffffffffffff19161480610d7d57507f5b5e139f000000000000000000000000000000000000000000000000000000007bffffffffffffffffffffffffffffffffffffffffffffffffffffffff1916827bffffffffffffffffffffffffffffffffffffffffffffffffffffffff1916145b80610d8d5750610d8c82611797565b5b9050919050565b610d9d81611801565b610ddc576040517f08c379a0000000000000000000000000000000000000000000000000000000008152600401610dd3906126a9565b60405180910390fd5b50565b600033905090565b816004600083815260200190815260200160002060006101000a81548173ffffffffffffffffffffffffffffffffffffffff021916908373ffffffffffffffffffffffffffffffffffffffff160217905550808273ffffffffffffffffffffffffffffffffffffffff16610e5a836108b9565b73ffffffffffffffffffffffffffffffffffffffff167f8c5be1e5ebec7d5bd14f71427d1e84f3dd0314c0f7b2291e5b200ac8c7c3b92560405160405180910390a45050565b600080610eac836108b9565b90508073ffffffffffffffffffffffffffffffffffffffff168473ffffffffffffffffffffffffffffffffffffffff161480610eee5750610eed8185610c1e565b5b80610f2c57508373ffffffffffffffffffffffffffffffffffffffff16610f1484610500565b73ffffffffffffffffffffffffffffffffffffffff16145b91505092915050565b8273ffffffffffffffffffffffffffffffffffffffff16610f55826108b9565b73ffffffffffffffffffffffffffffffffffffffff1614610fab576040517f08c379a0000000000000000000000000000000000000000000000000000000008152600401610fa29061282d565b60405180910390fd5b600073ffffffffffffffffffffffffffffffffffffffff168273ffffffffffffffffffffffffffffffffffffffff160361101a576040517f08c379a0000000000000000000000000000000000000000000000000000000008152600401611011906128bf565b60405180910390fd5b6110278383836001611842565b8273ffffffffffffffffffffffffffffffffffffffff16611047826108b9565b73ffffffffffffffffffffffffffffffffffffffff161461109d576040517f08c379a00000000000000000000000000000000000000000000000000000000081526004016110949061282d565b60405180910390fd5b6004600082815260200190815260200160002060006101000a81549073ffffffffffffffffffffffffffffffffffffffff02191690556001600360008573ffffffffffffffffffffffffffffffffffffffff1673ffffffffffffffffffffffffffffffffffffffff168152602001908152602001600020600082825403925050819055506001600360008473ffffffffffffffffffffffffffffffffffffffff1673ffffffffffffffffffffffffffffffffffffffff16815260200190815260200160002060008282540192505081905550816002600083815260200190815260200160002060006101000a81548173ffffffffffffffffffffffffffffffffffffffff021916908373ffffffffffffffffffffffffffffffffffffffff160217905550808273ffffffffffffffffffffffffffffffffffffffff168473ffffffffffffffffffffffffffffffffffffffff167fddf252ad1be2c89b69c2b068fc378daa952ba7f163c4a11628f55a4df523b3ef60405160405180910390a46112298383836001611848565b505050565b6001816000016000828254019250508190555050565b600081600001549050919050565b600073ffffffffffffffffffffffffffffffffffffffff168273ffffffffffffffffffffffffffffffffffffffff16036112c1576040517f08c379a00000000000000000000000000000000000000000000000000000000081526004016112b89061292b565b60405180910390fd5b6112ca81611801565b1561130a576040517f08c379a000000000000000000000000000000000000000000000000000000000815260040161130190612997565b60405180910390fd5b611318600083836001611842565b61132181611801565b15611361576040517f08c379a000000000000000000000000000000000000000000000000000000000815260040161135890612997565b60405180910390fd5b6001600360008473ffffffffffffffffffffffffffffffffffffffff1673ffffffffffffffffffffffffffffffffffffffff16815260200190815260200160002060008282540192505081905550816002600083815260200190815260200160002060006101000a81548173ffffffffffffffffffffffffffffffffffffffff021916908373ffffffffffffffffffffffffffffffffffffffff160217905550808273ffffffffffffffffffffffffffffffffffffffff16600073ffffffffffffffffffffffffffffffffffffffff167fddf252ad1be2c89b69c2b068fc378daa952ba7f163c4a11628f55a4df523b3ef60405160405180910390a461146b600083836001611848565b5050565b61147882611801565b6114b7576040517f08c379a00000000000000000000000000000000000000000000000000000000081526004016114ae90612a29565b60405180910390fd5b806006600084815260200190815260200160002090816114d79190612bf5565b507ff8e1a15aba9398e019f0b49df1a4fde98ee17ae345cb5f6b5e2c27f5033e8ce78260405161150791906120a5565b60405180910390a15050565b60006002600083815260200190815260200160002060009054906101000a900473ffffffffffffffffffffffffffffffffffffffff169050919050565b8173ffffffffffffffffffffffffffffffffffffffff168373ffffffffffffffffffffffffffffffffffffffff16036115be576040517f08c379a00000000000000000000000000000000000000000000000000000000081526004016115b590612d13565b60405180910390fd5b80600560008573ffffffffffffffffffffffffffffffffffffffff1673ffffffffffffffffffffffffffffffffffffffff16815260200190815260200160002060008473ffffffffffffffffffffffffffffffffffffffff1673ffffffffffffffffffffffffffffffffffffffff16815260200190815260200160002060006101000a81548160ff0219169083151502179055508173ffffffffffffffffffffffffffffffffffffffff168373ffffffffffffffffffffffffffffffffffffffff167f17307eab39ab6107e8899845ad3d59bd9653f200f220920489ca2b5937696c31836040516116af9190611ccd565b60405180910390a3505050565b6116c7848484610f35565b6116d38484848461184e565b611712576040517f08c379a000000000000000000000000000000000000000000000000000000000815260040161170990612da5565b60405180910390fd5b50505050565b606060405180602001604052806000815250905090565b606061173a82610d94565b6000611744611718565b90506000815111611764576040518060200160405280600081525061178f565b8061176e846119d5565b60405160200161177f929190612797565b6040516020818303038152906040525b915050919050565b60007f01ffc9a7000000000000000000000000000000000000000000000000000000007bffffffffffffffffffffffffffffffffffffffffffffffffffffffff1916827bffffffffffffffffffffffffffffffffffffffffffffffffffffffff1916149050919050565b60008073ffffffffffffffffffffffffffffffffffffffff1661182383611513565b73ffffffffffffffffffffffffffffffffffffffff1614159050919050565b50505050565b50505050565b600061186f8473ffffffffffffffffffffffffffffffffffffffff16611aa3565b156119c8578373ffffffffffffffffffffffffffffffffffffffff1663150b7a02611898610ddf565b8786866040518563ffffffff1660e01b81526004016118ba9493929190612e1a565b6020604051808303816000875af19250505080156118f657506040513d601f19601f820116820180604052508101906118f39190612e7b565b60015b611978573d8060008114611926576040519150601f19603f3d011682016040523d82523d6000602084013e61192b565b606091505b506000815103611970576040517f08c379a000000000000000000000000000000000000000000000000000000000815260040161196790612da5565b60405180910390fd5b805181602001fd5b63150b7a0260e01b7bffffffffffffffffffffffffffffffffffffffffffffffffffffffff1916817bffffffffffffffffffffffffffffffffffffffffffffffffffffffff1916149150506119cd565b600190505b949350505050565b6060600060016119e484611ac6565b01905060008167ffffffffffffffff811115611a0357611a02611f22565b5b6040519080825280601f01601f191660200182016040528015611a355781602001600182028036833780820191505090505b509050600082602001820190505b600115611a98578080600190039150507f3031323334353637383961626364656600000000000000000000000000000000600a86061a8153600a8581611a8c57611a8b612ea8565b5b04945060008503611a43575b819350505050919050565b6000808273ffffffffffffffffffffffffffffffffffffffff163b119050919050565b600080600090507a184f03e93ff9f4daa797ed6e38ed64bf6a1f0100000000000000008310611b24577a184f03e93ff9f4daa797ed6e38ed64bf6a1f0100000000000000008381611b1a57611b19612ea8565b5b0492506040810190505b6d04ee2d6d415b85acef81000000008310611b61576d04ee2d6d415b85acef81000000008381611b5757611b56612ea8565b5b0492506020810190505b662386f26fc100008310611b9057662386f26fc100008381611b8657611b85612ea8565b5b0492506010810190505b6305f5e1008310611bb9576305f5e1008381611baf57611bae612ea8565b5b0492506008810190505b6127108310611bde576127108381611bd457611bd3612ea8565b5b0492506004810190505b60648310611c015760648381611bf757611bf6612ea8565b5b0492506002810190505b600a8310611c10576001810190505b80915050919050565b6000604051905090565b600080fd5b600080fd5b60007fffffffff0000000000000000000000000000000000000000000000000000000082169050919050565b611c6281611c2d565b8114611c6d57600080fd5b50565b600081359050611c7f81611c59565b92915050565b600060208284031215611c9b57611c9a611c23565b5b6000611ca984828501611c70565b91505092915050565b60008115159050919050565b611cc781611cb2565b82525050565b6000602082019050611ce26000830184611cbe565b92915050565b600081519050919050565b600082825260208201905092915050565b60005b83811015611d22578082015181840152602081019050611d07565b60008484015250505050565b6000601f19601f8301169050919050565b6000611d4a82611ce8565b611d548185611cf3565b9350611d64818560208601611d04565b611d6d81611d2e565b840191505092915050565b60006020820190508181036000830152611d928184611d3f565b905092915050565b6000819050919050565b611dad81611d9a565b8114611db857600080fd5b50565b600081359050611dca81611da4565b92915050565b600060208284031215611de657611de5611c23565b5b6000611df484828501611dbb565b91505092915050565b600073ffffffffffffffffffffffffffffffffffffffff82169050919050565b6000611e2882611dfd565b9050919050565b611e3881611e1d565b82525050565b6000602082019050611e536000830184611e2f565b92915050565b611e6281611e1d565b8114611e6d57600080fd5b50565b600081359050611e7f81611e59565b92915050565b60008060408385031215611e9c57611e9b611c23565b5b6000611eaa85828601611e70565b9250506020611ebb85828601611dbb565b9150509250929050565b600080600060608486031215611ede57611edd611c23565b5b6000611eec86828701611e70565b9350506020611efd86828701611e70565b9250506040611f0e86828701611dbb565b9150509250925092565b600080fd5b600080fd5b7f4e487b7100000000000000000000000000000000000000000000000000000000600052604160045260246000fd5b611f5a82611d2e565b810181811067ffffffffffffffff82111715611f7957611f78611f22565b5b80604052505050565b6000611f8c611c19565b9050611f988282611f51565b919050565b600067ffffffffffffffff821115611fb857611fb7611f22565b5b611fc182611d2e565b9050602081019050919050565b82818337600083830152505050565b6000611ff0611feb84611f9d565b611f82565b90508281526020810184848401111561200c5761200b611f1d565b5b612017848285611fce565b509392505050565b600082601f83011261203457612033611f18565b5b8135612044848260208601611fdd565b91505092915050565b60006020828403121561206357612062611c23565b5b600082013567ffffffffffffffff81111561208157612080611c28565b5b61208d8482850161201f565b91505092915050565b61209f81611d9a565b82525050565b60006020820190506120ba6000830184612096565b92915050565b6000602082840312156120d6576120d5611c23565b5b60006120e484828501611e70565b91505092915050565b6120f681611cb2565b811461210157600080fd5b50565b600081359050612113816120ed565b92915050565b600080604083850312156121305761212f611c23565b5b600061213e85828601611e70565b925050602061214f85828601612104565b9150509250929050565b600067ffffffffffffffff82111561217457612173611f22565b5b61217d82611d2e565b9050602081019050919050565b600061219d61219884612159565b611f82565b9050828152602081018484840111156121b9576121b8611f1d565b5b6121c4848285611fce565b509392505050565b600082601f8301126121e1576121e0611f18565b5b81356121f184826020860161218a565b91505092915050565b6000806000806080858703121561221457612213611c23565b5b600061222287828801611e70565b945050602061223387828801611e70565b935050604061224487828801611dbb565b925050606085013567ffffffffffffffff81111561226557612264611c28565b5b612271878288016121cc565b91505092959194509250565b6000806040838503121561229457612293611c23565b5b60006122a285828601611e70565b92505060206122b385828601611e70565b9150509250929050565b7f4e487b7100000000000000000000000000000000000000000000000000000000600052602260045260246000fd5b6000600282049050600182168061230457607f821691505b602082108103612317576123166122bd565b5b50919050565b7f4552433732313a20617070726f76616c20746f2063757272656e74206f776e6560008201527f7200000000000000000000000000000000000000000000000000000000000000602082015250565b6000612379602183611cf3565b91506123848261231d565b604082019050919050565b600060208201905081810360008301526123a88161236c565b9050919050565b7f4552433732313a20617070726f76652063616c6c6572206973206e6f7420746f60008201527f6b656e206f776e6572206f7220617070726f76656420666f7220616c6c000000602082015250565b600061240b603d83611cf3565b9150612416826123af565b604082019050919050565b6000602082019050818103600083015261243a816123fe565b9050919050565b7f4552433732313a2063616c6c6572206973206e6f7420746f6b656e206f776e6560008201527f72206f7220617070726f76656400000000000000000000000000000000000000602082015250565b600061249d602d83611cf3565b91506124a882612441565b604082019050919050565b600060208201905081810360008301526124cc81612490565b9050919050565b7f41646472657373206973206e6f7420746865206f776e65720000000000000000600082015250565b6000612509601883611cf3565b9150612514826124d3565b602082019050919050565b60006020820190508181036000830152612538816124fc565b9050919050565b7f56616c756520686967686572207468616e2062616c616e63652e000000000000600082015250565b6000612575601a83611cf3565b91506125808261253f565b602082019050919050565b600060208201905081810360008301526125a481612568565b9050919050565b600081905092915050565b50565b60006125c66000836125ab565b91506125d1826125b6565b600082019050919050565b60006125e7826125b9565b9150819050919050565b7f54686572652077617320616e206572726f722100000000000000000000000000600082015250565b6000612627601383611cf3565b9150612632826125f1565b602082019050919050565b600060208201905081810360008301526126568161261a565b9050919050565b7f4552433732313a20696e76616c696420746f6b656e2049440000000000000000600082015250565b6000612693601883611cf3565b915061269e8261265d565b602082019050919050565b600060208201905081810360008301526126c281612686565b9050919050565b7f4552433732313a2061646472657373207a65726f206973206e6f74206120766160008201527f6c6964206f776e65720000000000000000000000000000000000000000000000602082015250565b6000612725602983611cf3565b9150612730826126c9565b604082019050919050565b6000602082019050818103600083015261275481612718565b9050919050565b600081905092915050565b600061277182611ce8565b61277b818561275b565b935061278b818560208601611d04565b80840191505092915050565b60006127a38285612766565b91506127af8284612766565b91508190509392505050565b7f4552433732313a207472616e736665722066726f6d20696e636f72726563742060008201527f6f776e6572000000000000000000000000000000000000000000000000000000602082015250565b6000612817602583611cf3565b9150612822826127bb565b604082019050919050565b600060208201905081810360008301526128468161280a565b9050919050565b7f4552433732313a207472616e7366657220746f20746865207a65726f2061646460008201527f7265737300000000000000000000000000000000000000000000000000000000602082015250565b60006128a9602483611cf3565b91506128b48261284d565b604082019050919050565b600060208201905081810360008301526128d88161289c565b9050919050565b7f4552433732313a206d696e7420746f20746865207a65726f2061646472657373600082015250565b6000612915602083611cf3565b9150612920826128df565b602082019050919050565b6000602082019050818103600083015261294481612908565b9050919050565b7f4552433732313a20746f6b656e20616c7265616479206d696e74656400000000600082015250565b6000612981601c83611cf3565b915061298c8261294b565b602082019050919050565b600060208201905081810360008301526129b081612974565b9050919050565b7f45524337323155524953746f726167653a2055524920736574206f66206e6f6e60008201527f6578697374656e7420746f6b656e000000000000000000000000000000000000602082015250565b6000612a13602e83611cf3565b9150612a1e826129b7565b604082019050919050565b60006020820190508181036000830152612a4281612a06565b9050919050565b60008190508160005260206000209050919050565b60006020601f8301049050919050565b600082821b905092915050565b600060088302612aab7fffffffffffffffffffffffffffffffffffffffffffffffffffffffffffffffff82612a6e565b612ab58683612a6e565b95508019841693508086168417925050509392505050565b6000819050919050565b6000612af2612aed612ae884611d9a565b612acd565b611d9a565b9050919050565b6000819050919050565b612b0c83612ad7565b612b20612b1882612af9565b848454612a7b565b825550505050565b600090565b612b35612b28565b612b40818484612b03565b505050565b5b81811015612b6457612b59600082612b2d565b600181019050612b46565b5050565b601f821115612ba957612b7a81612a49565b612b8384612a5e565b81016020851015612b92578190505b612ba6612b9e85612a5e565b830182612b45565b50505b505050565b600082821c905092915050565b6000612bcc60001984600802612bae565b1980831691505092915050565b6000612be58383612bbb565b9150826002028217905092915050565b612bfe82611ce8565b67ffffffffffffffff811115612c1757612c16611f22565b5b612c2182546122ec565b612c2c828285612b68565b600060209050601f831160018114612c5f5760008415612c4d578287015190505b612c578582612bd9565b865550612cbf565b601f198416612c6d86612a49565b60005b82811015612c9557848901518255600182019150602085019450602081019050612c70565b86831015612cb25784890151612cae601f891682612bbb565b8355505b6001600288020188555050505b505050505050565b7f4552433732313a20617070726f766520746f2063616c6c657200000000000000600082015250565b6000612cfd601983611cf3565b9150612d0882612cc7565b602082019050919050565b60006020820190508181036000830152612d2c81612cf0565b9050919050565b7f4552433732313a207472616e7366657220746f206e6f6e20455243373231526560008201527f63656976657220696d706c656d656e7465720000000000000000000000000000602082015250565b6000612d8f603283611cf3565b9150612d9a82612d33565b604082019050919050565b60006020820190508181036000830152612dbe81612d82565b9050919050565b600081519050919050565b600082825260208201905092915050565b6000612dec82612dc5565b612df68185612dd0565b9350612e06818560208601611d04565b612e0f81611d2e565b840191505092915050565b6000608082019050612e2f6000830187611e2f565b612e3c6020830186611e2f565b612e496040830185612096565b8181036060830152612e5b8184612de1565b905095945050505050565b600081519050612e7581611c59565b92915050565b600060208284031215612e9157612e90611c23565b5b6000612e9f84828501612e66565b91505092915050565b7f4e487b7100000000000000000000000000000000000000000000000000000000600052601260045260246000fdfea2646970667358221220dc1a50f09f88828479da2eb47b850e570736219d51accb20f3c59276cd6bd56b64736f6c63430008110033",
  "linkReferences": {},
  "deployedLinkReferences": {}
}